:020000040800F2
:1000000000000220FD29000805040008090400087A
:100010000D04000811040008150400080000000089
:1000200000000000000000000000000019040008AB
:100030001D04000800000000210400082504000839
:10004000412A0008412A0008412A0008412A0008E4
:10005000412A0008412A000891040008412A0008AA
:10006000412A0008412A0008412A0008191A0008FC
:10007000412A0008412A0008412A0008412A0008B4
:10008000412A0008412A0008412A0008412A0008A4
:10009000412A0008412A0008412A0008412A000894
:1000A000412A0008412A0008412A0008412A000884
:1000B000412A0008412A000895040008412A000846
:1000C000412A0008412A0008412A0008412A000864
:1000D000412A0008412A0008412A0008412A000854
:1000E000412A0008412A0008412A0008412A000844
:1000F000412A0008412A0008412A0008C9190008BD
:10010000412A0008412A0008412A0008691A00080B
:10011000412A0008412A0008412A0008412A000813
:10012000412A0008412A0008412A0008412A000803
:10013000412A0008412A0008412A0008412A0008F3
:10014000412A0008412A0008412A0008412A0008E3
:10015000412A0008412A0008412A0008412A0008D3
:10016000412A0008412A0008412A0008412A0008C3
:10017000412A0008412A0008412A0008412A0008B3
:10018000412A0008412A0008034B1A6812B1196875
:10019000481E1860704700BF00000020022008B50C
:1001A00001F0AAFC002008BD0020602100F040BA48
:1001B000C020602100F03CBA00207047012008B543
:1001C00002F012FC012802D0B7EE000A08BD02F0CE
:1001D00005FC00EE900ADFED037AB8EE600A20EE2F
:1001E000270A08BD0000802F70B504209CB00121B3
:1001F000C0F2400002F06AFA01214FF4806002F080
:100200008FFA4FF0806242F24C230192C4F2010354
:1002100046F2104540F28802C4F202050293C2F28F
:1002200000024FF4006300260124284601A903922E
:1002300008934FF400524FF480730A930992049686
:100240000594069607960B960C960D940E960F96AF
:1002500001F0DCFE2846214601F024FF04254FF47E
:10026000006003221AA91A95C4F202004FF408553F
:10027000C4F201058DF86C208DF86F6001F0BCFFB1
:1002800016A8169617961896199601F02FFD4FF09E
:100290000073284610A910938DF844608DF84540EE
:1002A000129614968DF8544001F0F4FC2246334621
:1002B00028460C2101F03EFD2846214601F09AFD1A
:1002C0002846214601F08CFD2846214601F028FDF4
:1002D0001CB070BD2DE9F843012001F0E7FB0020C0
:1002E00001F0E4FB022001F0E1FB032001F0DEFB62
:1002F000002001F001FC0020014601F01DFC01215D
:10030000402002F0F1F9012002F05AFBFFF76CFFE8
:100310004FF40850C4F2010001F05CFD324948F28C
:100320001F500A68C5F2EB10A0FB02131A09B2F1C4
:10033000807F57D24EF210084FF46D492B492C4B59
:100340002C4C2D4DCEF20008CEF20009571EF0269F
:10035000C8F8047001F54A4C89F82360274E0CF563
:10036000907700220720C8F80820C8F8000019601C
:10037000376000F041F946214BF68032042000F04E
:10038000AFFC1F484FF4C07101F0E0FAA1464FF0F6
:1003900001080027002001F00FFC0146002011B1E8
:1003A00094F82C31ABB101F007FC06460320002E77
:1003B000F0D101F0B1FB00206F6084F82C6101F0F6
:1003C000FBFB014600200029EDD094F82C31002BD6
:1003D000E9D1032089F82C8101F08EFB4FF07C508D
:1003E0006860D7E7FEE700BF2C0000208C000020EB
:1003F0006CDE002020DD00200000002084DE0020D4
:100400004CDB0020704700BFFEE700BFFEE700BFE7
:10041000FEE700BFFEE700BF704700BF704700BFA8
:10042000704700BF10B5144CFFF7AEFE23680BBB3E
:10043000FFF7C4FE114B1249B3F800C01FFA8CF24B
:1004400003EE102ADFED0F7AF8EE432A9FED0E2A15
:1004500062EEA71A9FED0D1AC1EE820AF1EE046A50
:1004600040EE017A30EEA60AC1ED007ABCEEC07A09
:1004700084ED007A10BD00BF00000020880000203D
:10048000180000200000484200007F430000FA44AA
:10049000704700BF704700BF4FF46D42CEF20002BC
:1004A0004FF46053D2F88800C4F2020340F47001A4
:1004B000C2F888101868002240F0010119609A60A3
:1004C000186843F2100120F0847C2CF48030C2F2D2
:1004D000004118605960186882B020F480211960CA
:1004E000DA6000920192186840F480321A601A466D
:1004F00003E00098B0F5A06F09D0116801F4003353
:1005000001930098411C0091019B002BF1D04FF406
:10051000605CC4F2020CDCF8002012F4003323D03B
:10052000012301930199012922D04FF46052C4F2B2
:1005300002024FF481409168C3F2000021F40003ED
:100540009360C2F88400116841F080631360106802
:100550000301FCD54FF46D4CCEF2000C4FF000625D
:10056000CCF8082002B07047019301990129DCD131
:100570004FF46050C4F202004FF4E04C016CC4F23E
:10058000000C41F080530364DCF8002042F4804109
:10059000CCF8001083688360816841F40042826077
:1005A000836845F2084243F4A051C0F24072816072
:1005B0004260036843F080720260014608684FF4AD
:1005C00060538201C4F20203F8D54FF4705CC4F2A8
:1005D000020C40F20561CCF800109A6822F003008A
:1005E0009860996841F002029A609A6802F00C00E3
:1005F0000828FAD199E700BF30B44DF66864C2F21A
:1006000000044DF66062C2F2000201254DF65C6303
:10061000C2F2000325804DF688600024002114609A
:10062000C2F200004FF4A462198030BC02F08CBC0E
:100630002DE9F04F2DED088BC74DC84F2B8885B0A5
:100640004DF65C64C2F20004029107EB400940F2EF
:1006500018064DF670614DF674624DF66060C2F298
:100660000006C2F20001C2F20002C2F200002488B9
:10067000D6ED009A91ED008A92ED009AD0ED008AB5
:10068000002B40F0AD81B64D95ED00AA0395A44630
:10069000B44DB54EB54FDFF80083DFF8ECA2DFF8BC
:1006A000FCB29FEDB3BADFEDB3BADFEDB3AA4C46AF
:1006B000E14640F21402C2F2000292ED002A62EE1C
:1006C0000B1A4DF6506C81EEAB0AC2F2000C4DF6DF
:1006D00078604DF6506EC2F20000C2F2000E9CED42
:1006E000001ADFEDA66A70EE010A80ED000AF4EE52
:1006F000E60AF1EE10FAC8BF70EEE60AB0EE600A44
:10070000CEED000A02F0B0FC9FED9D7AF7EE007A84
:1007100040EE077A029B67EEA99AA3F11001C9EE99
:100720008A9A8AB2029219EE900A02F0EFFA88A32E
:10073000D3E9002302F09EFB002840F00581F6EE8D
:10074000002AF4EE629AF1EE10FAC8BFF0EE629A57
:1007500039EEC93ADFED8B3A04F1400163EE239A9A
:10076000019139E0BFEE007AF4EEC77AF1EE10FAAB
:1007700040F15781F0EE477A48F20102DAF8003092
:10078000E3EC017A4DF6BF2CCBEB030E0431E645CA
:10079000CAF80030316005DD7B4B40F28C00C2F2BC
:1007A00000001860CBEB01014DF6BF20814204DD53
:1007B00040F28C03C2F20003336009F101011FFA19
:1007C00081F9228062800434B9F5807F00F09D8039
:1007D000019A944200F0AC8039EE299AF7EE007A43
:1007E00038EE098AB4EEE78AF1EE10FA2CDA09F154
:1007F000040205EB8203F6EE003A93ED006A73EE15
:10080000C85A05EB890C36EE255A316883ED005A3B
:10081000DCED004A34EEE84A98ED003A44EE238AD3
:10082000D1ED002A97ED002A63EE227A48EE827A13
:10083000B7EE007AF4EEC77AF1EE10FA92DD47F6E1
:10084000FF72F0EE477A99E738EE678AB6EE007AE3
:1008500068EE2A0A80EE89AA3AEE470A02F0BCFB4B
:1008600082B207EE902ADFF838C102F03F03B8EEFB
:10087000676A0CEBC300D0ED015AD0ED004A3AEEA6
:1008800046AA05EB89014AEE254A91ED005A35EE5C
:10089000244A09F10102012081ED004A403392B25D
:1008A00030B10CEBC30E9EED017ADEED007A19E05B
:1008B0000CEBC300D0ED011A90ED001A0AEE211ADC
:1008C00005EB820E9EED000A40339BB270EE016A8A
:1008D0000CEBC301501C91ED017AD1ED007ACEED05
:1008E000006A82B24AEE077A05EB820090ED000AB8
:1008F000403370EE277A9BB241F2FF1101328B42F6
:10090000C0ED007A92B2D3D971E720494FF49072CA
:10091000A1F5806002F0D6FA00214FF480621C48F5
:1009200002F012FB019A94424FF000097FF454AF99
:100930000298B8B340F2180E039BC2F2000EDEED2F
:10094000009A93ED00AAB4E6DFED129A00E700BF2B
:10095000F168E388B5F8E43E68DE00204CDB002057
:100960000800002088DE00206CDE0020040000204B
:10097000DB0FC94200803B4700008042DB0FC940CB
:100980000AD7A33C0000803D84DE002088E20020DE
:10099000A8DF0020ACC527370C0000208C00002009
:1009A000C43C00084DF65C6C4DF670604DF6746208
:1009B0004DF66061C2F2000CC2F20000C2F2000209
:1009C000C2F200014C4680ED008A82ED009AC1ED32
:1009D000008AACF8009005B0BDEC088BBDE8F08F44
:1009E000174B93ED00AA89EE8A8A039318EE100A3A
:1009F00002F08CF910A3D3E9002302F03BFA68B9A6
:100A0000B6EE009AB4EE498AF1EE10FAD8BFB0EE15
:100A1000489A00202880B6EE008A38E69FED099AB1
:100A2000F7E7DFED096A67EEA60ABDEEE07A17EE9A
:100A3000100A82B2A2E600BFF168E388B5F8E43E8E
:100A400008000020ACC5273700FEFF46AFF300804A
:100A500070B505464FF4A8400E46C4F2000094213C
:100A600000229E4C01F086FD4FF4805323604FF42A
:100A7000A8408221C4F20000C0F2070101F098FDF5
:100A800040B92068421E22600028F0D1BDE87040C5
:100A9000FFF784BB4FF4A8402946C4F2000001F0E0
:100AA00081FD4FF4805121604FF4A8408021C4F2B1
:100AB0000000C0F2070101F07BFD28B92368581E31
:100AC0002060002BF0D1E1E74FF4A840C4F2000011
:100AD000314601F067FD4FF4961222604FF4A840B2
:100AE0000421C1F20001C4F2000001F071FD38B927
:100AF00021684B1E23600029F0D1FFF74FFBEDE783
:100B00004FF4A840C4F20000012101F025FD4FF48C
:100B1000961020604FF4A840C4F200004FF400315A
:100B200001F056FD58B121684A1E22600029F1D11A
:100B3000FFF734FB0446301B18BF012070BD4FF493
:100B4000A840C4F20000012101F0F8FC4FF48053EA
:100B500023604FF4A8400121C4F20000C0F2030159
:100B600001F026FD28B92068411E21600028F0D13F
:100B7000DEE74FF4A8400022C4F20000942101F007
:100B8000F9FC4FF4805222604FF4A8408221C4F255
:100B90000000C0F2070101F00BFD28B92368581EC0
:100BA0002060002BF0D1C3E74FF4A8402946C4F2DF
:100BB000000001F0F7FC4FF4805121604FF4A84091
:100BC0000421C4F20000C1F2000101F001FD28B9C6
:100BD00023685A1E2260002BF0D1A9E74FF4A840E9
:100BE000C4F20000012101F0A9FC4FF48050206004
:100BF0004FF4A8400121C4F20000C0F2030101F04B
:100C0000D7FC28B921684B1E23600029F0D18FE75B
:100C10004FF4A840C4F20000942101224FF4805503
:100C200001F0A8FC256005E02068421E2260002833
:100C30003FF47EAF4FF4A845C4F2000502212846D8
:100C4000C1F2000101F0C4FC0028EDD028460021CB
:100C500001F09AFC012128462B8B01F07DFC4FF41A
:100C6000805121604FF4A8404021C4F20000C1F23D
:100C7000000101F0ADFC28B92368581E2060002B4C
:100C8000F0D155E74FF4A840C4F2000001F08CFC0D
:100C90004FF4A8434FF480522260C4F20003B3F82B
:100CA00000C05FEA8C5205D52268511E2160002ADF
:100CB000F5D13DE704464FF4A8400121C4F20000FD
:100CC00001F062FC4FF4A8404FF48061C4F20000D0
:100CD000C1F2000101F098FC2DE700BF30000020B8
:100CE0002DE9F04F642991B0914600F26A8248F2F2
:100CF0001F55C1EB0124C5F2EB1585FB0423E21758
:100D0000C2EB63115FFA81F808F119005FFA80FA0B
:100D10000820012101F0DAFC4FF440600224002594
:100D20000126C4F202000DA910278DF839400D9755
:100D30008DF838608DF83A508DF83B5001F05CFA30
:100D40000720314601F0C2FC4FF480604FF410726E
:100D5000C4F202000DA90D928DF838408DF839408B
:100D60008DF83A608DF83B5001F046FA4FF4806000
:100D700006210422C4F2020001F002FB4FF480605D
:100D800004220921C4F2020001F0FAFA4FF40060D3
:100D90004FF4A053C4F202000DA90D938DF8384012
:100DA0008DF839408DF83A508DF83B5001F024FA17
:100DB000284604210622C4F2020001F0E1FAC94CDF
:100DC0004FF40060C4F202000A21062201F0D8FAB2
:100DD0006068022800F03E822846C4F202000DA995
:100DE0000D9701F009FA4FF40060C4F202000C21E3
:100DF000062201F0C5FA4FF4006080230027022587
:100E0000C4F202000DA90D938DF838508DF83950B9
:100E10008DF83A708DF83B7001F0EEF94FF40060F8
:100E2000C4F202000721062201F0AAFA4FF4406042
:100E3000C4F2020010213A4601F09CFA44F6FE7515
:100E4000023DFDD14FF440600122C4F202001021A6
:100E500001F090FA01214FF4001001F053FC4FF41F
:100E6000A840C4F2000001F0A5FA0DF1400B48F2D1
:100E7000A0634FF48047C0F201034FF4A8404BF841
:100E80001C3D4FF4806267F31F400121ADF82850EC
:100E900033264BF6FF75ADF82E20ADF82A50ADF88D
:100EA0002C60ADF8307001F03BFB4FF4A840594680
:100EB00067F31F4001F0B6FA4FF4961121604FF42A
:100EC000A840C4F200004FF4003101F081FB00287B
:100ED00000F0D1812068411E21600028EFD1FFF78A
:100EE0005DF905464FF4961323604FF4A840C4F211
:100EF00000004FF4003101F06BFB002800F0B782D6
:100F00002068411E21600028EFD1FFF747F9DFF884
:100F1000D8B1AF2145194FF496108BF8041020601A
:100F20004FF4A840C4F200004FF4003101F050FB30
:100F3000002800F080822668721E2260002EEFD109
:100F4000FFF72CF94FF496162D1826604FF4A840A1
:100F5000C4F200004FF4003101F03AFB002800F029
:100F60004E8223685A1E2260002BEFD1FFF716F93C
:100F70004FF49613B8F1E60F0544236000F2FB80AE
:100F80004FF4A840C4F200004FF4003101F020FB00
:100F9000002800F0B78221684A1E22600029EFD1A4
:100FA000FFF7FCF84FF4961121604FF4A840C4F20B
:100FB00000004FF4003101F00BFB002800F08682A6
:100FC0002668721E2260002EEFD1FFF7E7F86668F0
:100FD000022E00F0B3824FF4961020604FF4A84028
:100FE000C4F200004FF4003101F0F2FA002800F0E2
:100FF0007A8121684E1E26600029EFD1FFF7CEF8D6
:101000004FF49611451921604FF4A840C4F2000036
:101010004FF4003101F0DCFA002800F04881266826
:10102000731E2360002EEFD1FFF7B8F86668022E1A
:10103000054416D02B4B4FF4961018604FF4A8407F
:10104000C4F200004FF4003101F0C2FA002800F0B1
:10105000E58221684A1E22600029EFD1FFF79EF841
:101060002D184FF4961121604FF4A840C4F20000EF
:101070004FF4003101F0ACFA002800F0A48126689A
:10108000721E2260002EEFD1FFF788F84FF49616FB
:10109000451926604FF4A840C4F200004FF4003117
:1010A00001F096FA002800F072812068421E22604A
:1010B0000028EFD1FFF772F82D184FF4961020603A
:1010C0004FF4A840C4F200004FF4003101F080FA60
:1010D000002800F0408123685A1E2260002BEFD1C7
:1010E00004E000BF3000002054DE0020FFF756F877
:1010F0004FF496132D1823604FF4A840C4F200005B
:101100004FF4003101F064FA002800F008812168F2
:101110004A1E22600029EFD1FFF740F80346012163
:101120004FF40040ED1801F0EDFA4FF47050C4F2A6
:10113000000001F01FFB4FF4705000264FF40072C6
:1011400001A9C4F20000CDF80C90ADF80660ADF82E
:101150000860ADF81060ADF80420ADF80A2001F089
:1011600041FB6168022900F09E81002D2ED00120F4
:1011700011B0BDE8F08F4FF4A840C4F200004FF466
:10118000003101F025FA002800F081822068421E1B
:1011900022600028EFD1FFF701F84FF4961020608D
:1011A0004FF4A840C4F200004FF4003101F010FAEF
:1011B000002800F0518221684A1E22600029EFD1E8
:1011C00003E74FF07D0A4FF06408A1E56668BE4F63
:1011D000012E00F0BB826268012A00F074820120B7
:1011E000C0F22000012101F071FA4FF000500121FE
:1011F00001F088FA0020044603231022C4F2020002
:101200000DA98DF838300D928DF83B4000F0F4FFB9
:1012100005A9204605940694089401F093FB204606
:10122000012101F0A9FB4FF47050C4F200007121BC
:10123000012201F06FFB0FA8332201238DF83C201F
:101240008DF83D408DF83E408DF83F3000F0DEFCDB
:1012500020468DE73046314601F038FA002003265B
:10126000C4F202000DA90D978DF838608DF83B503F
:1012700000F0C2FFBFE54FF4A840C4F20000012116
:1012800001F05CF94FF4805222604FF4A840012134
:10129000C4F20000C0F2030101F08AF9002840F016
:1012A00039822668751E2560002EEED117E64FF4B0
:1012B000A840C4F20000012101F040F94FF4805031
:1012C00020604FF4A8400121C4F20000C0F20301E5
:1012D00001F06EF9002840F0188221684A1E226051
:1012E0000029EED1A0E64FF4A840C4F2000001218D
:1012F00001F024F94FF4805323604FF4A8400121FA
:10130000C4F20000C0F2030101F052F9002840F0DD
:1013100018822068421E22600028EED16EE64FF44B
:10132000A840C4F2000001214FF4805601F006F9F4
:1013300026604FF4A8400121C4F20000C0F203016E
:1013400001F036F9002840F0F6812068431E236042
:101350000028EED1E0E64FF4A8400121C4F20000DD
:1013600001F0ECF84FF4805121604FF4A8400121C6
:10137000C4F20000C0F2030101F01AF9002840F0A5
:10138000D5812668701E2060002EEED1AEE64FF4A7
:10139000A840C4F20000012101F0D0F84FF48053BE
:1013A00023604FF4A8400121C4F20000C0F2030101
:1013B00001F0FEF8002840F0B48121684E1E26603E
:1013C0000029EED176E64FF4A840C4F200000121D6
:1013D00001F0B4F84FF4805020604FF4A840012190
:1013E000C4F20000C0F2030101F0E2F8002840F06E
:1013F00082812368591E2160002BEED144E64FF410
:10140000A840C4F20000012101F098F84FF4805088
:1014100020604FF4A8400121C4F20000C0F2030193
:1014200001F0C6F8002840F0618121684E1E266058
:101430000029EED19AE54FF4A840C4F20000012142
:1014400001F07CF84FF4805323604FF4A840012151
:10145000C4F20000C0F2030101F0AAF8002840F035
:1014600040812068411E21600028EED168E54FF4DC
:10147000A840C4F20000012101F060F84FF480524E
:1014800022604FF4A8400121C4F20000C0F2030121
:1014900001F08EF8002840F01F812668731E23603B
:1014A000002EEED131E501214FF0005001F02AF974
:1014B000304605A905960696089601F043FA30468F
:1014C000012101F059FA50E6300000204FF4A84005
:1014D000C4F20000012101F031F84FF48053236081
:1014E0004FF4A8400121C4F20000C0F2030101F052
:1014F0005FF8002840F004812068411E2160002828
:10150000EED162E54FF4A840C4F2000001214FF48F
:10151000805601F013F826604FF4A8400121C4F270
:101520000000C0F2030101F043F8002840F05481AC
:101530002368581E2060002BEED131E5B84B4FF4E4
:1015400096121A604FF4A840C4F200004FF4003124
:1015500001F03EF8002800F0B8812068411E2160AB
:101560000028EFD1FEF71AFE45194FF496102060BF
:101570004FF4A840C4F200004FF4003101F028F805
:10158000002800F06C8121684E1E26600029EFD1F2
:10159000FEF704FE4FF496112D1821604FF4A84079
:1015A000C4F200004FF4003101F012F8002800F0FE
:1015B00071812668731E2360002EEFD1FEF7EEFDC9
:1015C0004FF496162D1826604FF4A840C4F2000080
:1015D0004FF4003100F0FCFF002800F02581236863
:1015E000581E2060002BEFD1FEF7D8FD4FF4961364
:1015F0002D1823604FF4A840C4F200004FF40031CE
:1016000000F0E6FF002800F0ED802068411E216018
:101610000028EFD1FEF7C2FD2D18DCE44FF4A840FE
:10162000C4F2000001214FF4805600F087FF2660CD
:101630004FF4A8400121C4F20000C0F2030100F001
:10164000B7FF002840F05B812068431E236000281C
:10165000EED1FEF7A3FD03E54FF4A840C4F200006D
:1016600001214FF4805600F069FF26604FF4A84036
:101670000121C4F20000C0F2030100F099FF00282C
:101680003ED12368581E2060002BEFD19DE44FF41B
:10169000A8400121C4F2000000F050FF4FF4805137
:1016A00021604FF4A8400121C4F20000C0F2030100
:1016B00000F07EFF002840F029812668731E236019
:1016C000002EEED167E54FF47050C4F20000022105
:1016D00001F016F900204BE50420AF21FFF7B8F91F
:1016E00015E405208121FFF7B3F92BE4062004213E
:1016F000FFF7AEF93CE427200021FFF7A9F9C5E484
:1017000021205146FFF7A4F961E40A200021FFF7E8
:101710009FF98BE402200121FFF79AF90546FFF7B4
:10172000E1BB1F200F21FFF793F9C5E41A200A211E
:10173000FFF78EF9DCE41B200A21FFF789F9034645
:10174000EDE402209E21FFF783F959E4B8683146A1
:1017500000F0BCFF2946F86800F0A4FCF86800F02F
:1017600053FB304B3A69DBF800105A604022DA60D4
:101770004FF6FE721A614FF480629A614FF4006274
:10178000DA614FF400521A624FF480725A624FF4D9
:10179000403219609A6219469D605D61DD621D6389
:1017A0005D639D63F86800F031FCF86810213246F3
:1017B00000F0C6FCF8680821324600F0C1FC7869E8
:1017C0008DF83D508DF83C000FA88DF83E508DF8F7
:1017D0003F6000F01BFAFEE420205146FFF738F985
:1017E000FFF7E0BB4FF4A840C4F2000001214FF422
:1017F000805600F0A3FE26604FF4A8400121C4F2F9
:101800000000C0F2030100F0D3FE002840F0888001
:1018100023685A1E2260002BEED1FEF7BFFCFBE6C8
:1018200030000020F8E300204FF4A8400121C4F26A
:10183000000000F083FE4FF4805121604FF4A84077
:101840000121C4F20000C0F2030100F0B1FE002843
:1018500072D12668721E2260002EEFD1C4E64FF4CA
:10186000A840C4F20000012100F068FE4FF480534C
:1018700023604FF4A8400121C4F20000C0F203012C
:1018800000F096FE002852D12068421E22600028F7
:10189000EFD17DE64FF4A840C4F20000012100F032
:1018A0004DFE4FF4805020604FF4A8400121C4F257
:1018B0000000C0F2030100F07BFE002841D1216846
:1018C0004A1E22600029EFD178E64FF4A840C4F206
:1018D000000001214FF4805600F030FE26604FF4E6
:1018E000A8400121C4F20000C0F2030100F060FE34
:1018F00088B923685A1E2260002BF0D132E60E20F0
:101900000421FFF7A5F82D18FFF7ABBB20205146A7
:10191000FFF79EF841E408200121FFF799F823E63C
:1019200015200021FFF794F82D18FFF754BB09206C
:101930000121FFF78DF82DE614200021FFF788F82C
:1019400054E60E20C021FFF783F839E6F8B51B4CAA
:101950001B4B6768E1624FF6FF72914238BF0A463F
:101960000646012F0D46E0689E6019461A611ED09A
:1019700000F04CFBE068012100F094FB4FF4705044
:10198000C4F20000818B490502D4012100F0A8FFB8
:10199000E26A0C484FF6FF7C624538BF9446CCEBB8
:1019A000050506EB4C06066025630020F8BD00F037
:1019B0002DFBE068394600F075FBDFE730000020C2
:1019C000F8E30020B8E3002070B5114C114BE0683B
:1019D000A1691D68266B00F06FFB80B9E068E169C2
:1019E0000B4C00F069FB00B970BD31462846FEF78C
:1019F000DBFBE169E068BDE8704000F07FBB314689
:101A00002846FEF7D5FBA169E06800F077FBE5E723
:101A100030000020B8E3002070B5114C114BE06895
:101A2000A1691D68266B00F047FB80B9E068E16999
:101A30000B4C00F041FB00B970BD31462846FEF763
:101A4000B3FBE169E068BDE8704000F057BB314688
:101A50002846FEF7ADFBA169E06800F04FFBE5E723
:101A600030000020B8E300204FF4705008B5C4F2F5
:101A70000000022100F060FF70B10B484368022BA8
:101A80000BD0FEF799FB01464FF47050C4F20000F2
:101A9000BDE8084000F032BF08BDFEF78DFB0146EF
:101AA000042000F07DFFECE73000002030B54CF65C
:101AB000CC44C0F60004054683B0012154F8200050
:101AC00004EB450400F002FE40F26400238AC2F2F7
:101AD0000000012100938DF8041000228DF80710FA
:101AE000022350F825008DF8062069468DF8053050
:101AF00000F082FB03B030BD4CF6CC42C0F60002D1
:101B000040F2640C02EB4001C2F2000C0B8A5CF85C
:101B100020201383704700BF4CF6CC42C0F6000271
:101B200040F2640C02EB4001C2F2000C0B8A5CF83C
:101B300020205383704700BF30B50446012087B092
:101B40000D46014600F0C2FD01214FF4804000F037
:101B5000E7FD184806A900EB84040123206941F839
:101B6000143D00248DF808408DF80B4000F044FB34
:101B7000012D01D007B030BD2146204600F028F8E5
:101B800003A8082303958DF810408DF811308DF8C7
:101B9000125000F0EDFA0F21062205A88DF814204E
:101BA0008DF815108DF816108DF8175000F02EF8DE
:101BB000E0E700BF6400002040F26401C2F20001CF
:101BC00008B501EB80030121186900F0CDFB08BDC9
:101BD00030B44FF460538D08C4F20103AA1C01F025
:101BE000030153F8225089000F2404FA01FC25EA6E
:101BF0000C0443F8224053F8224000FA01F040EA76
:101C0000040143F8221030BC704700BFC37830B4E1
:101C10007BB900784FF4614C410900F01F02CEF20D
:101C2000000C2031012303FA02F04CF8210030BCF3
:101C300070474FF46D45CEF200054278EC68857828
:101C40000178E343C3F3022CCCF10404E3B202FABB
:101C500003F40F2242FA0CF303EA050CE4B24FF44A
:101C600061434CEA0402CEF2000301EB030C1201C3
:101C7000D1B28CF8001302784FF4614C5109CEF2C6
:101C8000000C02F01F03012000FA03F24CF821209F
:101C9000CDE700BFD0F804C00B684A792CF0407C37
:101CA000F0B42CF4807C0D79CF680C698E684CEA16
:101CB000030343EA0525456085684FF2FD7CCCF2BD
:101CC000FF0C3C4305EA0C03344344EA030C4CEAA2
:101CD000420383600A7DC16A531E21F47002D9B2A7
:101CE00042EA0153C362F0BC704700BF70B44FF4C6
:101CF0000C5290E84200C4F2010285685468C06842
:101D000046EA010C43F2E003CFF6FC734CEA05010E
:101D1000014304EA030C41EA0C03536070BC7047B2
:101D2000836819B923F001018160704743F0010312
:101D300083607047092970B421D901EB41041E3C2E
:101D4000C668072505FA04F526EA050503FA04F432
:101D500045EA0403062AC36020D90C2A02EB82025A
:101D60002BD9C46A413A1F2303FA02F324EA030C75
:101D700001FA02F24CEA0201C16270BC70470669C6
:101D800001EB4104072505FA04F526EA050503FAE7
:101D900004FC45EA0C03062A0361DED8013A446BD1
:101DA00002EB820C1F2303FA0CF224EA020301FA6D
:101DB0000CF143EA01024263DFE7046B233A1F237D
:101DC00003FA02F324EA030C01FA02F24CEA0201DC
:101DD0000163D2E7816841F080438360704700BFB0
:101DE000836819B923F480718160704743F480736C
:101DF00083607047836819B923F40071816070476C
:101E000043F4007383607047016846F210020023B8
:101E100021F00101C4F202020160036043608360AB
:101E2000C36003612123904243616AD046F22802D5
:101E3000C4F2020290426CD046F24002C4F20202A6
:101E400090426ED046F25801C4F20201884271D02D
:101E500046F27001C4F20201884273D046F2880251
:101E6000C4F20202904277D046F2A002C4F202020B
:101E700090423CD046F2B801C4F2020188427DD0C3
:101E800046F21041C4F2020188427FD046F2284255
:101E9000C4F20202904200F0818046F24042C4F255
:101EA0000202904200F0828046F25841C4F20201E0
:101EB000884200F0848046F27041C4F202018842F8
:101EC00000F0858046F28842C4F20202904200F09F
:101ED000888046F2A042C4F20202904200F08B8059
:101EE00046F2B841C4F2020188423FD070474FF435
:101EF000C04CC4F2020C0020C2F23D00CCF80C0031
:101F000070474FF4C04CC4F2020C3D20CCF80800DE
:101F100070474FF4C043C4F202034FF474619960F8
:101F200070474FF4C04CC4F2020C4FF47410CCF85C
:101F3000080070474FF4C043C4F202034FF07462CC
:101F40009A6070474FF4C04CC4F2020C3D20C2F2BC
:101F50000000CCF80C0070474FF4C043C4F20203F9
:101F60004FF47461C2F20001D96070474FF4C84366
:101F7000C4F202034FF03D52DA60B7E74FF4C043BA
:101F8000C4F202034FF03D52DA6070474FF4C84C80
:101F9000C4F2020C3D20CCF8080070474FF4C8434F
:101FA000C4F202034FF47461996070474FF4C84C57
:101FB000C4F2020C4FF47410CCF8080070474FF4D0
:101FC000C843C4F202034FF074629A6070474FF442
:101FD000C84CC4F2020C3D20C2F20000CCF80C0048
:101FE00070474FF4C843C4F202034FF47461C2F265
:101FF0000001D96070474FF4C84CC4F2020C0020B5
:10200000C2F23D00CCF80C00704700BF2DE9F00F84
:102010000368D1F80090D1F80CA0D1F81480D1F861
:1020200018C0CF690E6A4D6A8C6A4A6BD1F838B015
:1020300086B001930B6B0493CB6A05930B690293F3
:102040004B68896803934AEA090343EA080343EAB1
:102050000C033B4343EA060949EA050545EA040C3B
:102060004CEA020348F23F08019ACFF21C0843EA07
:102070000B0502EA080845EA080404604369049A6B
:10208000059C23F0070542EA040C4CEA0502039B79
:10209000029D426145608360C16006B0BDE8F00FFB
:1020A000704700BF036819B923F001010160704750
:1020B00043F001030360704710B44FF4C84246F286
:1020C0000F444FF4C04CC4F20202C4F20204C4F242
:1020D000020CA04288BF94468A0040F67D704CBF37
:1020E000DCF80420DCF80020C0F67D7001EA000373
:1020F00013420CBF0020012010BC704730B44FF4D5
:10210000C84246F20F444FF4C043C4F20204C4F282
:102110000202C4F20203A04288BF1346880007D41B
:1021200040F67D75C0F67D750D409D6030BC7047F2
:1021300040F67D7CC0F67D7C01EA0C00D860F5E7B6
:102140000B0604D543697AB143F0800343618029CB
:1021500006D0036801F01E011AB923EA01020260E9
:10216000704719430160704723F080034361EEE735
:10217000837970B443B34FF47053C4F20103016820
:102180001E6802794579CC4326401E605E6802F1E4
:10219000804C0CF59E3234405C6014682143116021
:1021A00002689868D14308409860D868102D01EA09
:1021B0000001D96016D005F1804505F59E352868E7
:1021C00040EA02032B600BE00279016802F18040D3
:1021D00000F59E3CDCF8003023EA0102CCF8002038
:1021E00070BC7047996841EA02009860D96841EA7A
:1021F0000200D860F4E700BF2DE9F00F84B000239F
:102200000A6800911C464FF0010C05E0B04541D032
:102210006C1CBB1C102C60D00CFA04F7651C07EA80
:1022200002090CFA05F6B94506EA020803F10207AD
:10223000ECD10168DDF800B00191032101FA03F14E
:102240006FEA010A01999BF804B0CDF808A00AEAE8
:10225000010AC0F800A001680BFA03FA0BF1FF3B7A
:102260005FFA8BFB4AEA010ABBF1010FC0F800A03C
:1022700037D9C4680099DDF808A091F807900AEAF8
:102280000401C160C46809FA03F141EA0403B045DE
:10229000C360BDD14FF0030A066800990AFA07F33C
:1022A000DB430C791E400660066804FA07F9013C1E
:1022B000E4B249EA0606012C06603AD9C468CE7930
:1022C00003EA0401C160C46806FA07F343EA0401A3
:1022D0006C1CBB1C102CC1609ED104B0BDE8F00F7B
:1022E00070470099D0F808A049790191009989793F
:1022F0000391029901EA0A0BC0F808B00199D0F8DD
:1023000008B001FA03F141EA0B0AC0F808A0D0F8BE
:1023100004A02AEA0909DDF80CA0C0F80490D0F85E
:1023200004900AFA04FA1FFA8AF141EA09044460A7
:102330009FE7846891F8059003EA04068A46897944
:102340008660846809FA07F949EA040686604468E9
:1023500024EA08064660466801FA05F4A1B20E4375
:1023600046605146AAE700BF036919420CBF00202E
:10237000012070470AB9418370470183704700BF4D
:10238000CB08083301F00701890030B450F823501E
:102390000F2404FA01FC25EA0C0440F8234050F80D
:1023A000234002FA01F242EA040140F8231030BC53
:1023B000704700BF08B54FF4A843C4F20003984229
:1023C00018D04FF4B041C4F2000188421ED04FF43F
:1023D000B842C4F20002904200D008BD01214FF47F
:1023E000000000F0ABF94FF400000021BDE8084008
:1023F00000F0A4B901214FF4001000F09FF94FF450
:1024000000100021BDE8084000F098B901214FF408
:10241000800000F093F94FF480000021BDE80840EF
:1024200000F08CB970B5828884B0044668460D46C9
:1024300022F03F0600F0ECF802982A684DF683631C
:10244000C4F21B333604A3FB0031360C890C41EA7D
:102450000603A380B4F800C02CF00106330448F250
:10246000A066C0F201061B0CB242238029D853009B
:10247000B0FBF3F080B201312184032898BF04201F
:10248000A0832388B5F804E029896E89AA891FFAF8
:1024900083FC4CF001002080238823F4806C2CF016
:1024A0000A0003041B0C46EA0E0043EA000C41EA52
:1024B000020E1FFA8CF01FFA8EF12080218104B0E9
:1024C00070BDB5F806C04BF6FF7EF44521D002EB97
:1024D000820E0EEB8E06B0FBF6F398B240F480400D
:1024E00003051A0D0AB940F001004FF4967344F643
:1024F000D35603FB01F2C1F2620686FB02236FEAA8
:1025000040409E096FEA504C711C1FFA8CF02184E8
:10251000B6E702EB4202B0FBF2F6B0B2E0E700BF72
:10252000038829B923F001010B041A0C02807047BB
:1025300099B241F001030380704700BF038829B9B5
:1025400023F480710B041A0C0280704799B241F495
:1025500080730380704700BF038829B923F400719A
:102560000B041A0C0280704799B241F40073038087
:10257000704700BF1AB901F0FE010182704741F0B7
:1025800001010182704700BF038829B923F48061EB
:102590000B041A0C0280704799B241F480630380E7
:1025A000704700BF01827047008AC0B2704700BF09
:1025B000B0F814C0038B1FFA8CF242EA034000EA21
:1025C000010C2CF07F428B1A584240EB03007047FD
:1025D00082B000230A0F0093019301900092009BA8
:1025E00021F07F4153B101981430019001980368A4
:1025F00019420CBF0020012002B07047019A183226
:10260000090C0192F2E700BFCA4391B28182704780
:1026100010B44FF46053C4F202039A6802F00C0243
:10262000042A26D0082A2AD04FF41052C0F2F4020D
:1026300002604FF4605CC4F2020C2349DCF80830FD
:10264000C3F303140B5D22FA03F24260DCF8084086
:10265000C4F38223CC5C22FA04F48460DCF80830F2
:10266000C3F3423C11F80C1022FA01F3C36010BC12
:1026700070474FF49052C0F27A020260D9E75C686A
:102680005A68596814F4800F4FF4605C14BF4FF41B
:1026900090534FF41053C4F2020C14BFC0F27A03EB
:1026A000C0F2F40302F03F02C1F38814B3FBF2F16D
:1026B000DCF80430C3F3014201FB04F1541C630055
:1026C000B1FBF3F20260B4E7780000204FF46053EE
:1026D000C4F202031A6B19B922EA000119637047A8
:1026E00010431863704700BF4FF46053C4F20203F5
:1026F0005A6B19B922EA00015963704710435863B5
:10270000704700BF4FF46053C4F202031A6C19B94A
:1027100022EA00011964704710431864704700BF33
:102720004FF46053C4F202035A6C19B922EA000153
:102730005964704710435864704700BF4FF46053AA
:10274000C4F202031A6A19B922EA00011962704739
:1027500010431862704700BF4FF46053C4F2020385
:102760005A6A19B922EA0001596270471043586247
:10277000704700BF08B54FF44053C4F201039842BC
:1027800018D04FF46051C4F2000188421ED04FF4BB
:102790007052C4F20002904200D008BD01214FF4F3
:1027A0000040FFF7CBFF4FF400400021BDE8084098
:1027B000FFF7C4BF01214FF48050FFF7CDFF4FF466
:1027C00080500021BDE80840FFF7C6BF01214FF44B
:1027D0008040FFF7B3FF4FF480400021BDE8084080
:1027E000FFF7ACBF838B8A6823F47A6C2DE9F00382
:1027F0002CF01F073D042C0C022384830384868B5A
:102800009A42B6B260D04FF46053C4F202038C888F
:102810009D68002C0CBF4FF020084FF040082D029F
:102820004DD44FF46053C4F202034FF49055D3F8E3
:1028300084C0D3F88470D3F80490CB8809F03F09A2
:10284000C0F27A05B5FBF9F5CCF3881C0CFB05F555
:10285000C7F30277B3F5007FB5FBF7F737D0B7FBC7
:10286000F8FC0CEB8C077D00B5FBF2F77A1D92B2F9
:102870004CF6CD47CCF6CC47A7FB0275EA085508C5
:10288000AF1EBFB202F00102FD2F94BF45EA022243
:102890000222B1F800C04F888D8946EA0C0141F44C
:1028A000006C4CEA070141EA050C1A431FFA8CF14F
:1028B00093B20C4303848483BDE8F00370479D68A2
:1028C00025F400079F60ACE78C88CB88E1E73D0AE0
:1028D00005EB85077D00B5FBF2F77A1D92B2C7E7DD
:1028E000838B29B923F480610B041A0C828370470F
:1028F00099B241F480638383704700BF8181704740
:1029000083889BB21AB923EA010282807047194377
:10291000818070470123090903FA01F1838889B294
:102920009BB222B923EA010CA0F804C0704741EA27
:1029300003028280704700BF038919420CBF002048
:102940000120704770B491E860004FF4E8438C6850
:10295000CA68C4F2000335432C431E6840F6FE717A
:1029600001FA00F5224326EA050502FA00F145EADC
:102970000100186070BC70474FF4E843C4F20003D4
:102980001A6831B9012101FA00FC22EA0C021A602E
:102990007047012101FA00F141EA02001860704716
:1029A00082B04FF4E843C4F2000300220192019385
:1029B000019A083210180190019B196002B070470B
:1029C0004FF40063C5F206031A6818B922F0040038
:1029D0001860704742F004021A6070474FF40063B9
:1029E000C5F20603986870474FF40061C5F206010E
:1029F0004B6818420CBF002001207047002103E003
:102A00000A4B5B584350043109480A4B42189A421A
:102A1000F6D3094A02E0002342F8043B074B9A42EE
:102A2000F9D3FDF739FDFDF755FC7047D4D0000808
:102A300000000020880000208800002034E40020EE
:102A4000FEE7000081F0004102E000BF83F0004398
:102A500030B54FEA41044FEA430594EA050F08BF39
:102A600090EA020F1FBF54EA000C55EA020C7FEAFD
:102A7000645C7FEA655C00F0E2804FEA5454D4EB7A
:102A80005555B8BF6D420CDD2C4480EA020281EA44
:102A9000030382EA000083EA010180EA020281EA7C
:102AA0000303362D88BF30BD11F0004F4FEA0131CE
:102AB0004FF4801C4CEA113102D0404261EB4101DD
:102AC00013F0004F4FEA03334CEA133302D0524263
:102AD00063EB430394EA050F00F0A780A4F101041F
:102AE000D5F1200E0DDB02FA0EFC22FA05F2801859
:102AF00041F1000103FA0EF2801843FA05F359413F
:102B00000EE0A5F120050EF1200E012A03FA0EFCBD
:102B100028BF4CF0020C43FA05F3C01851EBE371E7
:102B200001F0004507D54FF0000EDCF1000C7EEB04
:102B300000006EEB0101B1F5801F1BD3B1F5001F42
:102B40000CD349085FEA30004FEA3C0C04F1010461
:102B50004FEA445212F5800F80F09A80BCF1004F8A
:102B600008BF5FEA500C50F1000041EB045141EA0C
:102B7000050130BD5FEA4C0C404141EB010111F40D
:102B8000801FA4F10104E9D191F0000F04BF0146B8
:102B90000020B1FA81F308BF2033A3F10B03B3F196
:102BA00020020CDA0C3208DD02F1140CC2F10C0226
:102BB00001FA0CF021FA02F10CE002F11402D8BF84
:102BC000C2F1200C01FA02F120FA0CFCDCBF41EA50
:102BD0000C019040E41AA2BF01EB0451294330BD1F
:102BE0006FEA04041F3C1CDA0C340EDC04F11404FC
:102BF000C4F1200220FA04F001FA02F340EA0300D3
:102C000021FA04F345EA030130BDC4F10C04C4F118
:102C1000200220FA02F001FA04F340EA03002946F8
:102C200030BD21FA04F0294630BD94F0000F83F442
:102C3000801306BF81F480110134013D4EE77FEA25
:102C4000645C18BF7FEA655C29D094EA050F08BF71
:102C500090EA020F05D054EA000C04BF1946104652
:102C600030BD91EA030F1EBF0021002030BD5FEA96
:102C7000545C05D14000494128BF41F0004130BDBE
:102C800014F580043CBF01F5801130BD01F0004512
:102C900045F0FE4141F470014FF0000030BD7FEA85
:102CA000645C1ABF194610467FEA655C1CBF0B4680
:102CB000024650EA013406BF52EA033591EA030F97
:102CC00041F4002130BD00BF90F0000F04BF00218F
:102CD000704730B54FF4806404F132044FF00005C2
:102CE0004FF0000150E700BF90F0000F04BF00213B
:102CF000704730B54FF4806404F1320410F00045A1
:102D000048BF40424FF000013EE700BF42004FEA9B
:102D1000E2014FEA31014FEA02701FBF12F07F4318
:102D200093F07F4F81F06051704792F0000F14BF15
:102D300093F07F4F704730B54FF4607401F0004559
:102D400021F0004120E700BF50EA010208BF7047B0
:102D500030B54FF000050AE050EA010208BF7047A5
:102D600030B511F0004502D5404261EB41014FF40E
:102D7000806404F132045FEA915C3FF4DCAE4FF012
:102D800003025FEADC0C18BF03325FEADC0C18BFF9
:102D9000033202EBDC02C2F1200300FA03FC20FA4A
:102DA00002F001FA03FE40EA0E0021FA02F1144497
:102DB000C1E600BF4FF0FF3C06E000BF4FF0010C42
:102DC00002E000BF4FF0010C4DF804CD4FEA410C7A
:102DD0007FEA6C5C4FEA430C18BF7FEA6C5C1BD047
:102DE00001B050EA410C0CBF52EA430C91EA030FC8
:102DF00002BF90EA020F0020704710F1000F91EA25
:102E0000030F58BF994208BF90422CBFD8176FEAF2
:102E1000E37040F0010070474FEA410C7FEA6C5CC0
:102E200002D150EA013C07D14FEA430C7FEA6C5CC7
:102E3000D6D152EA033CD3D05DF8040B704700BFF3
:102E40008446104662468C461946634600E000BF41
:102E500001B5FFF7B7FF002848BF10F1000F01BD13
:102E60004DF808EDFFF7F4FF0CBF012000205DF8DE
:102E700008FB00BF4DF808EDFFF7EAFF34BF012063
:102E800000205DF808FB00BF4DF808EDFFF7E0FFFC
:102E900094BF012000205DF808FB00BF4DF808ED4D
:102EA000FFF7CEFF94BF012000205DF808FB00BFB4
:102EB0004DF808EDFFF7C4FF34BF012000205DF896
:102EC00008FB00BF0F2AF0B43AD941EA00039B0780
:102ED00038D10C460346154626681E6066685E605B
:102EE000A6689E60E668103DDE60103410330F2D3A
:102EF000F2D8A2F1100424F00F0402F00F021034F3
:102F0000032A00EB0403214411D90E461D46144642
:102F100056F8047B043C032C45F8047BF8D8141FB6
:102F200024F00304043402F0030209191B192AB126
:102F300011F8014B013A03F8014BF9D1F0BC70478D
:102F40000346F4E70346F3E710F0030F70B40346BB
:102F50003FD0002A3BD0CDB201E0002A37D003F8A1
:102F6000015B013A13F0030F1C46F6D1032A28D95E
:102F7000CDB245EA05250F2A45EA054513D9234672
:102F80001646103E1D605D609D60DD6010330F2EA3
:102F9000F7D8A2F1100323F00F0302F00F02103351
:102FA000032A1C440DD926461346043B032B46F83E
:102FB000045BFAD8131F23F00303043302F0030267
:102FC000E41822B1C9B2013A04F8011BFBD170BC6C
:102FD00070470446CAE700BF10B410EE100AC0F3F1
:102FE000C751A1F17F031E2B83B013DCB3F1FF3F68
:102FF00036DBC40F162B12DD20F07F4020F40000DA
:1030000040F40000963900FA01F004B1404203B0E8
:1030100010BC7047FDEEC07A17EE900AF7E7114B2F
:1030200003EB8403D3ED007A37EE807A8DED017ADD
:103030009DED017A37EE677A17EE103A33F00040D3
:10304000E5D023F07F4020F40000C3F3C75340F4E1
:103050000000C3F1960320FA03F0002CD7D0D5E787
:103060000020D4E7FCCC000800B510EE102A40F692
:10307000D87322F00042C3F649739A4283B018DD38
:10308000B2F1FF4F03DB30EE400A03B000BD6846EB
:1030900000F026F800F0030001289DED000ADDEDA8
:1030A000010A12D002280AD090B9012000F0FCFCDD
:1030B000EBE7DFED0A0A002000F0F6FCE5E701206F
:1030C00000F0F2FCB1EE400ADFE700F05BF9DCE76C
:1030D00000F058F9B1EE400AD7E700BF0000000049
:1030E00070B510EE102A40F6D87322F00046C3F6F1
:1030F00049739E4286B010EE105A044677DD4CF6B6
:10310000E333C4F216039E421CDC4FF47D63002AB5
:1031100026F00F06C3F6C973DFED907A40F3F28014
:103120009E4270EE677A71D09FED8D7A77EEC76A16
:10313000012077EEE67AC4ED006A37EEC77A84EDB7
:10314000017A59E04FF47863C4F249339E426FDD4F
:10315000B6F1FF4F52DAF215863AA6EBC25607EEE9
:10316000106AFDEEC77ADFED7F6AF8EEE77A37EE98
:10317000677ACDED037A27EE267AFDEEC77AF8EE70
:10318000E77A37EE677ACDED047A27EE267AB5EE48
:10319000407AF1EE10FA8DED057A40F0C6800323F7
:1031A000F5EE407A013BF1EE10FA04A907D171ED7A
:1031B000017AF5EE407A013BF1EE10FAF7D00226E3
:1031C0000096694E03A82146019600F05DF9002D96
:1031D00012DA94ED007AD4ED017AB1EE477AF1EE8D
:1031E000677A84ED007AC4ED017A404204E000235E
:1031F00084ED000A4360002006B070BD70EE407A96
:103200000020C4ED017AC4ED007AF5E7DFED576ADE
:103210009FED577A77EEE67A012077EEC76A77EE70
:10322000E67AC4ED006A37EEC77A84ED017AE3E707
:1032300000F080FC9FED4F7AF6EE007A40EE077AC0
:103240009FED477AFDEEE77A17EE900AF8EEE76A0F
:10325000DFED427A1F2806EEE70A26EE877A1DDCAC
:10326000411E454B53F8213026F0FF029A4215D0FB
:1032700070EE477AC4ED007A30EE670A002D30EE2A
:10328000477A84ED017AB7DAF1EE677AB1EE477AE0
:10329000C4ED007A84ED017A4042ADE770EE477AE2
:1032A000F61517EE902AC2F3C753F31A082BC4ED94
:1032B000007AE1DDDFED2D7A66EEA77A30EE676AFF
:1032C00030EE467A37EE677ADFED297A16EEA77A86
:1032D00076EE477A17EE902AC2F3C753F61A192EE4
:1032E000C4ED007A36DDDFED257A66EEA77A36EE9C
:1032F000670A36EE407A37EE677ADFED217A16EE0E
:10330000A77AB5E79E4270EE277A10D09FED147A27
:1033100077EE876A4FF0FF3077EEE67AC4ED006A09
:1033200037EE877A84ED017A66E7032347E7DFED1E
:103330000F6A9FED0F7A77EEA67A4FF0FF3077EEA7
:10334000876A77EEE67AC4ED006A37EE877A84ED15
:10335000017A51E7B0EE460A8EE700BF800FC93F01
:10336000434435370000804384CD0008004435379E
:1033700008A3852E84F9223F04CD000800A3852EE2
:1033800032318D2410EE103A23F00043B3F1485F40
:103390002CDAFDEEC07A17EE903A002B65D060EE85
:1033A000007ADFED336A9FED337A07EEA67ADFED20
:1033B000326A57EE276A9FED317A06EEA77ADFED83
:1033C000306A57EE276A9FED2F7A06EEA77A27EE2E
:1033D000277A20EE200A17EE870AB6EE007A17EE5B
:1033E000870AF7EE007A37EEC00A704760EE007A7F
:1033F000DFED1F6A9FED1F7A07EEA67ADFED1E6AEA
:1034000057EE276A9FED1D7A06EEA77ADFED1C6A5C
:1034100057EE276A9FED1B7A06EEA77A49F69912B6
:10342000C3F69962934227EE277AD2DD0022C3F6D3
:103430004872934214DC03F17F4306EE903AF7EEB4
:10344000005A75EEE65A60EE200AB6EE006A57EEB4
:10345000866A57EE870A76EEE00A35EEE00A704794
:10346000F6EE075AF5EE026AEDE7B7EE000A70478E
:103470004ED747ADF6740F317CF29334010DD0373F
:10348000610BB63AABAA2A3D2DE9F04F2DED048B26
:10349000D7B0B24C649D5F1E54F825401D46D31E24
:1034A00048BF131DDB1023EAE3736FEA030917EB30
:1034B000040E0646029302EBC9091DD4DB1BDDF89E
:1034C00094819E4408EB830C19A80EF1010E002292
:1034D0008846002BA5BF5CF8021006EE901ADFEDBF
:1034E000A07AF8EEE67A013317EE901A04327345AB
:1034F00040F8041FEDD14146002C20DB42A80DF519
:10350000827CAE4600EB8408002FC0F2D3811AAB58
:10351000DFED937A03EB8E0230460023F0EC016A74
:1035200032ED017A0133AB4246EE877AF6D117EEDF
:10353000902A4CF8042FC4450EF1010EE4D1631E0D
:103540000DF1180C0CEB830C9FED878ADFED858A5B
:103550000393A046CDF810C005914FEA880B0DF5F6
:10356000AC7C0CEB0B03B8F1000F13ED140A19DD62
:1035700042A805AA00EB0B0360EE087AB0EE407A91
:10358000FDEEE77A73ED016AF8EEE77A834207EE23
:10359000E87A36EEA70ABDEEC77A17EE101A42F89F
:1035A000041FE9D1484600F01BFBB0EE409AB4EE90
:1035B000000A29EE000A00F0C5FAF2EE007A00EEE9
:1035C000679AB9F1000FFDEEC96AF8EEE67ACDED23
:1035D000016A39EE679A40F3B68008F1FF3206A916
:1035E000C9F1080051F8223043FA00F101FA00F065
:1035F0001B1A16EE90CA06A8C9F1070A8C4440F8B7
:103600002230CDF804C043FA0AFABAF1000F2DDDDA
:10361000019A0132B8F1000F019240F3288206AB03
:1036200003EB0B0E002153F8042BC2F1FF0011B97C
:10363000C2F5807012B143F8040C01217345F2D138
:10364000B9F1000F0FDDB9F1010F00F01D81B9F1E3
:10365000020F08D108F1FF3306A850F8232002F02A
:103660003F0240F82320BAF1020F7FD0B5EE409A16
:10367000F1EE10FA40F08C8008F1FF3C64450EDC5E
:1036800006A901EB0B0301EB8400002253F8041D93
:10369000834242EA0102F9D1002A40F017810DF17C
:1036A000180C039A5CF82230002B40F0E581049B53
:1036B0004FF0010C53F8042D0CF1010C002AF9D045
:1036C00008F10100C444604531DC0299659A07EBBA
:1036D000000E88440EF1FF3E1AAB42A902EB8808A7
:1036E00003EB8E0E8B4458F8043F06EE903AF8EE4A
:1036F000E67A002F17EE901A4EF8041F19DB1AAB6A
:103700004219DFED177A03EB820231460023F1EC18
:10371000016A32ED017A0133AB4246EE877AF6D187
:10372000013017EE901A60454BF8041FDBDDE046D0
:1037300013E7DFED0B7A013017EE901A60454BF876
:10374000041FD0DDF3E740F0AA8008F1FF3306A99B
:1037500051F823304FEA232A57E700BF9CD00008D6
:1037600000000000000080430000803BB7EE000A2C
:1037700030EE499A00293FF479AF484600F030FA1C
:1037800039EE409AB5EE409AF1EE10FA3FF474AF7C
:103790000599C9F10000B0EE490A009100F020FA45
:1037A0001FED107AB4EEC70AF1EE10FA0099C0F2DC
:1037B00068815FED137A60EE277A06ADFDEEE77A59
:1037C00009F10809F8EEE77A07EEC70AFDEEE77A95
:1037D000BDEEC00A17EE903A10EE102A45F82820E8
:1037E00008F1010845F82830B7EE000A4846009174
:1037F00000F0F6F9B8F1000F00993CDB08F1010385
:103800009B0042AF06A81FED287AC218FB1852F899
:10381000040D06EE900AF8EEE67A67EE807A20EE66
:10382000070A63ED017ABB42F1D108F1FF360025AA
:10383000002CC0F20681002DC0F20381984807EBEE
:103840008602DFED987A002301E0AB420ADC043007
:103850000432D0ED006A92ED007A01339C4246EECC
:10386000877AF2DA56A800EB8503013E43ED287A09
:103870000135B31CDCD1649C032C51D8DFE814F073
:10388000C90099009900580008F1FF330DF1180C98
:103890005CF8232002F07F024CF82320E3E6F6EEEA
:1038A000007AB4EEE79AF1EE10FA80F2D7804FF08A
:1038B000000ADBE6DFED7B7A17EE902A4CF8042F46
:1038C000C4450EF1010E7FF41FAE38E606AA059935
:1038D00052F82C30A9F10809002B40F0D08002EBFF
:1038E0008C03E04653F8042D08F1FF38A9F10809CC
:1038F000002AF7D078E7DFED6B7ABAF1000F51D0EC
:10390000DDED2E6A9DED2F7AF1EE666AB1EE477A13
:10391000F1EE677AC1ED006A81ED017AC1ED027ABC
:10392000019C04F0070057B0BDEC048BBDE8F08F9C
:10393000B8F1000FDFDD2EA808F1010200EB8202D2
:1039400013462FA813ED017A53ED026A76EE877ABB
:1039500076EEE76A37EE267A23ED017A834243ED6D
:10396000017AEFD1B8F1010FC5DD30A8134613ED90
:10397000017A53ED026A76EE877A76EEE76A37EEE1
:10398000267A23ED017A834243ED017AEFD1DFED10
:10399000457A32ED017A824277EE877AF9D1BAF12F
:1039A000000FADD12E9B0B602F9BC1ED027A4B60B7
:1039B000B6E7B8F1000F70DB2EAA08F10103DFEDC6
:1039C000397A02EB830333ED017A934277EE877AFB
:1039D000F9D1BAF1000F4CD0B1EE677A81ED007ADF
:1039E0009DED2E7AB8F1000F77EE677A09DD2EABE8
:1039F00003EB8808043393ED007A434577EE877A2A
:103A0000F8D1BAF1000F01D0F1EE677AC1ED017A79
:103A100086E7B8F1000F3DDB2EAA08F10103DFEDC8
:103A2000217A02EB830333ED017A934277EE877AB2
:103A3000F9D1BAF1000F01D0F1EE677AC1ED007A49
:103A40006EE7DFED187A56A800EB8503013E43EDE3
:103A5000287A0135B31C7FF4EBAE0CE7019A0132F2
:103A6000B8F1000F4FF0020A01923FF7D8AD0021E4
:103A7000E6E5B0EE677AB1E74FF0010C20E6E046EC
:103A8000B2E6BDEEC00A0DF1180C10EE103A4CF87B
:103A90002830A9E6DFED037ACBE7DFED027A98E77D
:103AA000A4D000080000000010EE103A23F00043FC
:103AB000B3F1485F04DAFDEEC07A17EE903A23B313
:103AC00060EE007ADFED156A9FED157A17EEA67AA3
:103AD000DFED146A47EE276A9FED137A16EEA77A98
:103AE000DFED126A27EE806A47EE276A70B166EE54
:103AF000266AB6EE007A50EE876A56EEA70ADFED28
:103B00000C7A46EE270A30EE600A70479FED087A7D
:103B100017EEA67A07EE060A704700BFD3C92E2F0C
:103B2000342FD7321BEF3836010D50398988083CC5
:103B3000ABAA2A3E10EE102A22F0004300EE103A03
:103B4000704700BF10EE103A23F00041CA0D7F3AD3
:103B5000162A10B41CDC002A10EE104A1EDB4FF6A9
:103B6000FF70C0F27F0040FA02F018420ED0DFED85
:103B70001B7A30EE270AB5EEC00AF1EE10FA03DD2B
:103B8000002B1ADB24EA000300EE103A10BC704749
:103B9000B1F1FF4FFAD330EE000AF7E7DFED0F7A0D
:103BA00030EE270AB5EEC00AF1EE10FAECDD002B7C
:103BB0000BDB002300EE103AE8E74FF4000343FA72
:103BC00002F2A41824EA0003DEE70020CBF680709E
:103BD000002918BF034600EE103AD7E7CAF2497130
:103BE00008B510EE103A33F000422DED028B11D0E3
:103BF000B2F1FF4F11D2B2F5000F11D3D20D12184E
:103C0000FE2A2FDC002A1BDD23F0FF4343EAC253C8
:103C100000EE103ABDEC028B08BD30EE000AF9E769
:103C200043F6B043CFF6FF73DFED1C7A984220EEE7
:103C3000270A22DB10EE103AC3F3C752193ADEE727
:103C400012F1160F1EDA4CF2503398420ADC9FED47
:103C5000148AF0EE400AB0EE480A00F027F820EE91
:103C6000080AD7E79FED0F8AF0EE400AB0EE480A47
:103C700000F01CF820EE080ACCE7DFED097A20EE10
:103C8000270AC7E7193223F0FF4343EAC2539FEDE7
:103C9000060A07EE903A27EE800ABBE70000004CC8
:103CA0006042A20DCAF249710000003310EE101AF2
:103CB00021F0004310EE901A01F00042134300EE91
:103CC000103A7047000000000000000000000000F3
:103CD00000000000000000000000000000000000E4
:103CE00000000000000000000000000000000000D4
:103CF00000000000000000000000000000000000C4
:103D000000000000000000000000000000000000B3
:103D100000000000000000000000000000000000A3
:103D20000000000000000000000000000000000093
:103D30000000000000000000000000000000000083
:103D40000000000000000000000000000000000073
:103D50000000000000000000000000000000000063
:103D60000000000000000000000000000000000053
:103D70000000000000000000000000000000000043
:103D80000000000000000000000000000000000033
:103D90000000000000000000000000000000000023
:103DA0000000000000000000000000000000000013
:103DB0000000000000000000000000000000000003
:103DC00000000000000000000000000000000000F3
:103DD00000000000000000000000000000000000E3
:103DE00000000000000000000000000000000000D3
:103DF0000000000000000000E18CAB2FE18CAB2F35
:103E0000869E722F146E123088C1B62FD6CE6D30BA
:103E1000576D0D30159EBD3059515A3064631531C0
:103E2000CE98A530C62F68314B85F5303679B13143
:103E300006BB31315D2B05325C8E7B31F20E443294
:103E4000CA5DAE31EC9E8D32323DED313CEEC83272
:103E5000C7B31E320E240C33042851320F6E403388
:103E600087F987326935823374A8AE3287DFAD3384
:103E700028E4DD328C58E5335D8C0B33638F1534C9
:103E800060EF2D333A0B413482FF563318CB763432
:103E9000A7DD8333F55C9C34D49EA033AA84C4345C
:103EA000FE5FC233A91CF53456CEE9331FC817355F
:103EB00063D40B343ABD3A35A26026346355643579
:103EC0001BFF443495CA8A35DE2D683453D0A7359C
:103ED0005B3B883424DFC935F1379F3424ADF1359D
:103EE000745EB9345E021036B607D73456E32A360C
:103EF0000994F834D6F54936E2350F3550C36D369E
:103F0000CE7F2435A1718B36A2643C3535FEA236B6
:103F1000F2255735F5E2BD364E0A75353E84DC365E
:103F2000C62E8B35F04FFF3682B89D35085F1337AC
:103F3000FC4DB235C5A82937DE1DC93586CC4237C0
:103F4000155AE235C5175F37E337FE35C8DE7E37D1
:103F50000E780E36643E9137AA5F1F36582AA53771
:103F6000F3F23136B868BB372F5446363E33D43778
:103F7000B4A75C3636C8EF37131475365B3507388F
:103F800016E187367F311838A06E963651FF2A38F1
:103F90008B49A63683C83F38FD89B736C3B9563832
:103FA0008149CA36F4027038FBA2DE36A9EB8538A7
:103FB000C7B2F436D53695385F4B06374100A63880
:103FC000233713372567B8382E2D2137CB8CCC38C3
:103FD000D93E3037A994E238447E403773A4FA388A
:103FE00084FE513720720A3993D3643758BF183989
:103FF000501279377B5028394B6887378A3D3939D9
:104000009B129337DB9F4B3908949F375C925F3943
:10401000FCF8AC3778317539744EBB37A54D86390D
:10402000F9A1CA37C4F792398F01DB37DEA7A0396F
:10403000E87BEC379A6FAF393120FF379E61BF398B
:10404000237F09388491D03943131438EA13E339B4
:1040500001551F388CFEF6392C4D2B381834063A92
:10406000F104383867B4113AC4854538C40C1E3A97
:1040700074D953385B4A2B3A240A6338FE7A393AAA
:104080004822733821AD483A58168238EDEF583A35
:10409000441A8B3836536A3AA8A294388AE77C3A95
:1040A00071B59E381B5F883ABB58A938A9F4923A7B
:1040B000CB92B438D43D9E3A1C6AC0387344AA3AB5
:1040C0004FE5CC38C912B73A380BDA3881B3C43A65
:1040D000D6E2E738B031D33A5A73F638DE98E23A8E
:1040E00016E2023922F5F23A62EE0A397729023BEA
:1040F000756213399E5F0B3B40421C39C223153B4E
:10410000CC912539E27C1F3B3A552F3933722A3B3B
:10411000C19039393F0B363BB4484439CB4F423B11
:1041200072814F39E2474F3B703F5B39D9FB5C3BB3
:10413000468767394F746B3B845D743928BA7A3B84
:1041400078E380394B6B853B26E487398DE98D3BDD
:1041500039338F39C0DC963B2AD39639F349A03BDB
:1041600078C69E395B36AA3BAC0FA73956A7B43B3D
:1041700054B1AF396BA2BF3B0CAEB8394C2DCB3B21
:104180007308C239D24DD73B2BC3CB39040AE43B69
:10419000E7E0D5391368F13B5164E039596EFF3BD4
:1041A0002350EB39AE11073C18A7F639E6C60E3C92
:1041B000FB35013A46DA163CBB50073A524F1F3CDA
:1041C00032A50D3AA029283CC334143AF56C313C91
:1041D000D4001B3A021D3B3CC80A223AAD3D453C87
:1041E0000654293AE7D24F3CEFDD303ACCE05A3C56
:1041F000EAA9383A646B663C58B9403A0077723C99
:10420000990D493AD3077F3C0CA8513A2C11863CB2
:104210000B8A5A3A7CE58C3CF1B4633A2203943C15
:10422000112A6D3A726C9B3CBFEA763ACC23A33CD0
:10423000227C803A8D2BAB3CF9A9853A2A86B33C87
:1042400078FF8A3A2136BC3C4C7D903AF83DC53C1B
:104250000824963A37A0CE3C3DF49B3A7D5FD83C8B
:104260008EEEA13A657EE23C7C13A83A9DFFEC3CC1
:104270009A63AE3AD5E5F73C68DFB43AE699013D7A
:104280006687BB3A2176073D175CC23A02890D3D2D
:10429000E05DC93AF2D3133D438DD03A5B581A3DE5
:1042A0009EEAD73AB017213D5976DF3A6213283D8E
:1042B000C930E73AEA4C2F3D431AEF3ABDC5363DC7
:1042C0001F33F73A547F3E3D987BFF3A317B463DA2
:1042D000F5F9033BD1BA4E3D254E083BB23F573D61
:1042E00074BA0C3B5B0B603DF13E113B491F693DCD
:1042F000ACDB153B057D723DA9901A3B0E267C3D3B
:10430000EE5D1F3BF70D833D7043243B1230883D2B
:104310003141293B1C7A8D3D1E572E3BD4EC923DFA
:104320002885333BFE88983D34CB383B584F9E3D23
:1043300024293E3BA040A43DD19E433B975DAA3D2E
:10434000102C493BF8A6B03DB7D04E3B7E1DB73D83
:10435000858C543BE2C1BD3D435F5A3BDC94C43D78
:10436000A648603B2197CB3D6B48663B66C9D23D72
:10437000385E6C3B592CDA3DB589723BA2C0E13DF9
:1043800086CA783BFD86E93D3E207F3BFD7FF13DBF
:1043900037C5823B51ACF93D5304863B4606013E8E
:1043A000314D893BB650053E8F9F8C3BADB5093EE4
:1043B00028FB8F3B89350E3EB05F933B87D0123E82
:1043C000DCCC963BEA86173E56429A3B03591C3E8C
:1043D000CDBF9D3B0047213EE544A13B2451263EF5
:1043E0003FD1A43BAC772B3E7C64A83BD4BA303E93
:1043F00036FEAB3BC51A363E049EAF3BB5973B3EFF
:104400007B43B33BD131413E27EEB63B43E9463EC9
:10441000959DBA3B2CBE4C3E4E51BE3BBBB0523E6E
:10442000D308C23BFEC0583EA6C3C53B1CEF5E3E50
:104430004281C93B2A3B653E2241CD3B2EA56B3EC6
:10444000BA02D13B442D723E7BC5D43B72D3783E39
:10445000D488D83BB8977F3E314CDC3B0B3D833E44
:10446000F60EE03B4ABD863E8AD0E33B8A4C8A3E4C
:104470004C90E73BCDEA8D3E9B4DEB3B0498913E43
:10448000D107EF3B2254953E48BEF23B1A1F993E9E
:104490005070F63BDAF89C3E411DFA3B50E1A03EDD
:1044A00069C4FD3B63D8A43E89B2003CF8DDA83E58
:1044B000467F023CF2F1AC3E0E48043C3214B13E61
:1044C000850C063CB55D25BF4DCC073C853E23BF22
:1044D0000987093C671821BF563C0B3C77EB1EBF90
:1044E000D8EB0C3CC7B71CBF2B950E3C737D1ABF95
:1044F000F037103C933C18BFC3D3113C44F515BFB3
:104500004368133CA3A713BF0DF5143CCE5311BF52
:10451000BE79163CE7F90EBFF4F5173C109A0CBFB4
:104520004969193C6A340ABF5DD31A3C1DC907BFEB
:10453000CC331C3C4E5805BF338A1D3C25E202BFDC
:1045400030D61E3CCD6600BF6117203CDECCFBBEE2
:10455000654D213C74C2F6BEDB77223CB4AEF1BEA1
:104560006396233C0092ECBEA1A8243CBA6CE7BE43
:1045700030AE253C4A3FE2BEB3A6263C130ADDBE60
:10458000D591273C86CDD7BE406F283C0D8AD2BE40
:10459000933E293C1740CDBE6DFF293C1DF0C7BEA0
:1045A0008FB12A3C8E9AC2BE8D542B3CEC3FBDBECF
:1045B00026E82B3CA9E0B7BE046C2C3C497DB2BE7A
:1045C000D2DF2C3C4B16ADBE5A432D3C31ACA7BEBE
:1045D00031962D3C7F3FA2BE2AD82D3CBFD09CBE39
:1045E000FD082E3C766097BE5C282E3C31EF91BED4
:1045F00014362E3C807D8CBEE2312E3CF20B87BE01
:10460000921B2E3C159B81BEE2F22D3CFB5678BEE0
:10461000B4B72D3C857B6DBEBB692D3CE9A462BE61
:10462000E2082D3C5AD457BEF4942C3C080B4DBEE6
:10463000DB0D2C3C2E4A42BE61732B3CF39237BEFD
:1046400071C52A3C9FE62CBEEA032A3C614622BE85
:10465000C32E293C74B317BEDA45283C142F0DBE77
:104660003049273C82BA02BEAF38263CF5ADF0BDDA
:104670005714253C640BDCBD28DC233CE28FC7BD0E
:104680001690223CDF3DB3BD3530213CD8179FBD8D
:104690008FBC1F3C46208BBD30351E3C41B36EBDE8
:1046A0002D9A1C3CB48C47BDA0EB1A3CCDD120BD4B
:1046B000A429193CC50EF5BC5D54173C9864A9BCEF
:1046C000EF6B153C435D3DBC8770133CF3B227BBD9
:1046D0005462113C31EBCE3B8B410F3C21B7763C11
:1046E000640E0D3CC4E2C13C1EC90A3CA9A3033DB3
:1046F000FB71083C29C0253D4109063C7742473DF6
:104700003E8F033C4726683D4104013CAC33843D69
:104710003BD1FC3BBF00943D6379F73B5578A33D0B
:10472000AE01F23B7198B23DE46AEC3B1F5FC13DC4
:10473000D7B5E63B78CACF3D58E3E03BB6D8DD3D80
:104740004BF4DA3BF387EB3D96E9D43B91D6F83D49
:1047500029C4CE3B69E1023EFF84C83B9325093E54
:10476000192DC23BFD360F3E7DBDBB3BE414153E0B
:104770003E37B53BA0BE1A3E729BAE3B7C33203E1B
:104780003BEBA73BD872253EBF27A13B117C2A3EBD
:1047900028529A3BA24E2F3EAF6B933B05EA333E25
:1047A0008B758C3BAC4D383EFD70853B34793C3E7F
:1047B00093BE7C3B306C403E81836E3B3C26443E46
:1047C0006533603B0EA7473EE5D0513B4FEE4A3E76
:1047D000BA5E433BC9FB4D3E9FDF343B47CF503E63
:1047E0006356263BA068533ECDC5173BB9C7553E1F
:1047F000B430093B7FEC573EE333F53AE4D6593EFB
:10480000C908D83AF4865B3EE7E5BA3ABFFC5C3E9D
:1048100014D19D3A65385E3E1AD0803A013A5F3E27
:10482000C2D1473AD601603E88420E3A1A90603EA5
:1048300092FCA93916E5603E5086E0382A01613EB7
:10484000A1D1E3B8ABE4603EF12DA9B91390603E6D
:10485000CE390CBADB03603E155743BA88405F3E41
:1048600032E379BAA1465E3E51E997BACE165D3E73
:10487000068DB2BAB6B15B3EF8D6CCBA08185A3E2D
:10488000A7C1E6BA874A583EB82300BBF549563E51
:1048900072B10CBB3017543E4D0719BB15B3513ED6
:1048A000A02225BB881E4F3ED00031BB815A4C3E12
:1048B000479F3CBB0768493E82FB47BB1948463EC1
:1048C000041353BBCFFB423E6DE35DBB3E843F3ED2
:1048D0005A6A68BB93E23B3E86A572BB0318383E1A
:1048E000B8927CBBB625343EE01783BBF30C303E58
:1048F00046BD87BB0BCF2B3E8C388CBB476D273E0C
:10490000B98890BB03E9223EDEAC94BB9D431E3EBA
:1049100019A498BB787E193E8E6D9CBB0C9B143EEF
:104920006D08A0BBC99A0F3EF873A3BB297F0A3E4E
:1049300071AFA6BBAF49053E30BAA9BBB7F7FF3D83
:104940009293ACBB802EF53D033BAFBBD23AEA3D20
:10495000FEAFB1BBD01FDF3D06F2B3BBB0E0D33D2D
:10496000AB00B6BBA680C83D91DBB7BBED02BD3D39
:104970005E82B9BBC86AB13DCFF4BABB7ABBA53D74
:10498000AB32BCBB50F8993DC93BBDBB93248E3DB7
:104990000610BEBB9343823D55AFBEBB3CB16C3DE0
:1049A000B519BFBB06CE543D314FBFBB1FE43C3DE4
:1049B000E64FBFBB23FA243DF91BBFBBA4160D3D38
:1049C000A0B3BEBB5C80EA3C2317BEBB98FABA3CDE
:1049D000D546BDBBE0A88B3C1243BCBB3830393C4C
:1049E0004E0CBBBB1F54B73B02A3B9BBA1B893B8D5
:1049F000BB07B8BB9E56BABB103BB6BBD24838BC4F
:104A0000A63DB4BBD63389BC3110B2BBE3B7B5BC4D
:104A100073B3AFBBBBA4E1BC3728ADBB667706BDA3
:104A20005B6FAABB50C51BBDC589A7BB89B630BD8E
:104A30006778A4BB974545BD463CA1BB1F6D59BDDA
:104A40006AD69DBBEC276DBDEC479ABB753880BD1F
:104A5000F39196BB94A189BDA9B592BBEFCC92BD51
:104A60004AB48EBB34B89BBD188F8ABB2561A4BDE8
:104A7000644786BB9BC5ACBD85DE81BB83E3B4BD0B
:104A8000BAAB7ABBE2B8BCBDAE5D71BBCF43C4BDAF
:104A9000CAD567BB7D82CBBD04175EBB3573D2BD63
:104AA000672454BB5314D9BD04014ABB6464DFBD01
:104AB000FFAF3FBBE261E5BD883435BB8A0BEBBD80
:104AC000E0912ABB1A60F0BD48CB1FBB6C5EF5BD00
:104AD00013E414BB8D05FABD9BDF09BB8C54FEBDEE
:104AE0008882FDBA492501BEF618E7BA80F302BEF6
:104AF0004D89D0BA929404BE82DAB9BA440806BE8F
:104B00007C13A3BA6C4E07BE403B8CBAE46608BE69
:104B100083B16ABA905109BEF1E53CBA770E0ABE7C
:104B2000C8210FBA989D0ABEECE5C2B90FFF0ABEB4
:104B30007F9D4FB9F7320BBECC9BD1B785390BBEE9
:104B4000273B1A39F5120BBED4BBA63998BF0ABE53
:104B5000DEA5FF39C63F0ABE69E02B3AE39309BEE2
:104B60000679573A67BC08BED047813ADAB907BE22
:104B70009D8B963AC08C06BE8A81AB3ABC3505BE89
:104B80004623C03A76B503BEA66AD43AA10C02BE4B
:104B90009F51E83A013C00BE38D2FB3AB288FCBDD6
:104BA0005173073B194DF8BD9EC4103BF2C6F3BDCF
:104BB00042DA193B20F8EEBD8AB1223B95E2E9BD0D
:104BC000E0472B3B5B88E4BDC09A333B8BEBDEBDFB
:104BD000BBA73B3B4C0ED9BD7C6C433BDFF2D2BD47
:104BE000C8E64A3BAD9BCCBD7514523B080BC6BD15
:104BF0007BF3583B6D43BFBDE4815F3B5E47B8BD6F
:104C0000DBBD653B6F19B1BDA2A56B3B41BCA9BD26
:104C1000A137713B8532A2BD4972763BF37E9ABDC6
:104C20003D547B3B51A492BD2EDC7F3B6FA58ABDDA
:104C30007D04823B278582BDC3EC833BB78C74BD6A
:104C400077A6853BE6D763BD3131873BC2F152BDC4
:104C5000998C883B2FE041BD63B8893B23A930BDC7
:104C60005BB48A3B96521FBD56808B3B8CE20DBDD8
:104C70003D1C8C3B07BEF8BC06888C3B099CD5BC10
:104C8000B7C38C3B1C6BB2BC6BCF8C3B40378FBC2B
:104C900045AB8C3BDB1858BC81578C3B1DED11BCE0
:104CA00061D48B3BD90598BB3F228B3BB339CEB93E
:104CB00080418A3BC8BB7A3B9932893B3F48033CE1
:104CC00012F6873B4B43473C7B8C863BC344853C79
:104CD0007BF6843B6082A63CC034833B904FC73C4C
:104CE0000E48813B95A1E73C64627E3BF1B6033DF3
:104CF00011E2793B1255133DF510753B20A6223D7C
:104D0000FFF06F3B31A5313D3A846A3B754D403D24
:104D1000C9CC643B429A4E3DE6CC5E3B0F875C3D7E
:104D2000DD86583B7E0F6A3D1FFD513B4F2F773D7F
:104D300029324B3B39F1813D8A28443B7E12883D24
:104D4000F5E23C3B96F98D3D1964353BB5A4933DA6
:104D5000CFAE2D3B2C12993DF3C5253B5C409E3DCB
:104D600070AC1D3BBF2DA33D4F65153BEAD8A73D59
:104D700099F30C3B8740AC3D695A043B5A63B03D04
:104D8000C439F73A4140B43D7A7CE53A33D6B73D71
:104D90006483D33A4124BB3D1755C13A9529BE3DA2
:104DA00014F8AE3A76E5C03D13739C3A4157C33DC3
:104DB000C8CC893A747EC53DAE176E3AA45AC73D39
:104DC000186E483A80EBC83D49AA223AD530CA3D10
:104DD00087B3F939892ACB3D0F14AE399DD8CB3D25
:104DE0003E2245392E3BCC3D722C3A387252CC3D96
:104DF000C1CFCEB8BF1ECC3DA6817CB97EA0CB3D35
:104E0000C546C8B937D8CA3DD9D508BA8CC6C93D38
:104E1000E82A2DBA356CC83DD21551BA0ACAC63D2A
:104E2000098A74BAF7E0C43D97BD8BBA00B2C23D9F
:104E300085EE9CBA453EC03DE8D1ADBAFE86BD3D8B
:104E4000E161BEBA768DBA3DB298CEBA1453B73D81
:104E5000D370DEBA51D9B33DD3E4EDBABD21B03D34
:104E60006EEFFCBA002EAC3DC1C505BBD1FFA73D1E
:104E700014DA0CBB0099A33D4FB213BB6EFB9E3DF1
:104E8000204C1ABB0D299A3D5AA520BBE223953D23
:104E9000DFBB26BB03EE8F3DB08D2CBB96898A3DD0
:104EA000EC1832BBCFF8843DBF5B37BBE17B7E3D66
:104EB00085543CBB99B6723D9F0141BB80A6663DBF
:104EC0009A6145BB66505A3D227349BB34B94D3D8A
:104ED000F8344DBBE4E5403DFAA550BB84DB333DDF
:104EE00031C553BB319F263DB69156BB1436193D93
:104EF000C90A59BB68A50B3DC92F5BBBD8E4FB3C75
:104F000036005DBBD444E03CA97B5EBB5B75C43C12
:104F1000E7A15FBB1E81A83CC37260BBCA728C3C18
:104F20003EEE60BB04AA603C711461BBE464283CA3
:104F30009EE560BBFA56E03B1E6260BBD64B603B11
:104F40006E8A5FBB76654137285F5EBBC09D5DBBE7
:104F500002E15CBB613FDDBBD5105BBBE86325BCF8
:104F60009BEF58BBCE9F5BBC637E56BBB19F88BC9A
:104F700061BE53BB7C17A3BCE1B050BB9D2DBDBC33
:104F800054574DBB84D8D6BC39B349BBEC0EF0BCEA
:104F900033C645BBDA6304BD029241BBFB7C10BD46
:104FA00075183DBB824E1CBD845B38BB3AD427BD0F
:104FB000325D33BB0E0A33BD9A1F2EBB07EC3DBDDD
:104FC000F6A428BB567648BD91EF22BB4FA552BD33
:104FD000C8011DBB6C755CBD13DE16BB4CE365BD23
:104FE000F68610BBBBEB6EBD0CFF09BBAD8B77BD6E
:104FF000024903BB3CC07FBD1ACFF8BA5AC383BD78
:10500000ECBAEABA466E87BD2D5BDCBAB2DF8ABD68
:10501000A2B5CDBA89168EBD24D0BEBACA1191BD33
:10502000B2B0AFBA8DD093BD475DA0BA015296BD64
:10503000F5DB90BA719598BDE93281BA3D9A9ABD77
:1050400097D062BADE5F9CBDAB0443BAE8E59DBD74
:105050008A0E23BA052C9FBDB7FA02BAFA31A0BD59
:1050600077ABC5B9A6F7A0BD365885B9FD7CA1BD03
:1050700068290AB913C2A1BD7B3A1FB70DC7A1BDEC
:105080006A7EEB382C8CA1BDF6BD7439CE11A1BD62
:10509000DC6BB9396258A0BD0CEEF73974609FBD66
:1050A000CDE61A3AA72A9EBD7879393AB4B79CBDA5
:1050B00060A3573A6C089BBD1459753ABA1D99BD47
:1050C000AC47893A9CF896BD8D9D973A269A94BD37
:1050D000CFA8A53A830392BD3564B33AF2358FBDAC
:1050E00094CAC03AC8328CBDECD6CD3A6CFB88BDB0
:1050F0007984DA3A5A9185BD78CEE63A20F681BDB8
:105100007BB0F23ABB567CBD1C26FE3A8B6574BD63
:105110009A95043B301C6CBDE5DD093B527E63BDB6
:105120000BEA0E3BB38F5ABD3BB8133B2E5451BD17
:10513000C946183BC3CF47BD17941C3B81063EBDF3
:10514000AD9E203B97FC33BD2065243B45B629BD71
:1051500034E6273BE1371FBDB7202B3BD48514BD78
:105160009C132E3B9CA409BDF4BD303B7931FDBCA2
:10517000EF1E333B9ACDE6BCD335353BDF26D0BCA2
:105180000F02373B9E46B9BC2183383B3B36A2BC5D
:10519000B3B8393B22FF8ABC86A23A3BA55567BC0F
:1051A00080403B3B838538BC9B923B3BDEA009BCE7
:1051B000F7983B3B4075B5BBD4533B3BAD962FBBFB
:1051C00087C33A3B6DCD323988E8393B5E15453BA4
:1051D0006FC3383B67ECBE3BF054373B6F4B0D3C25
:1051E000D89D353BE4B23A3C149F333BAE9A673CC2
:1051F000AE59313B8CF8893CCACE2E3B63D29F3CE2
:10520000A7FF2B3B5752B53CA0ED283B0B70CA3C87
:10521000259A253B5123DF3CC806223B2B64F33CF7
:1052200030351E3B6995033D15271A3BD9370D3D97
:1052300052DE153BBE95163DD25C113B8CAB1F3D3B
:1052400094A40C3BD575283DAFB7073B4FF1303DDB
:105250005098023BD41A393D5F91FA3A61EF403DD4
:105260004896EF3A126C483D0D44E43A338E4F3D78
:10527000949FD83A3153563DE5ADCC3A9DB85C3D4C
:105280000A74C03A40BC623D46F7B33AFA5B683DE7
:10529000E83CA73AE0956D3D444A9A3A3268723D3F
:1052A000DB248D3A58D1763D56A47F3AEACF7A3D39
:1052B000A7AF643AA9627E3DE376493A43C4803D94
:1052C00063052E3A4D20823D9366123A1B45833D7D
:1052D000C74BED396632843D999DB53904E8843D6C
:1052E00031B37B39DE65853D6B2D0C39F4AB853DE3
:1052F000AFBCE63760BA853D6C41A4B84F91853D9F
:10530000338E40B90931853DF42197B9E799843D41
:10531000A38ACDB95CCC833D93B501BAF1C8823D77
:10532000DC561CBA4390813D739E36BA0623803DFD
:10533000CB8150BA05047D3D87F669BA2A5C793D78
:105340003F7981BA6150753DE1B58DBAB1E2703DEA
:1053500053AC99BA4F156C3DCF57A5BA90EA663D4C
:10536000CEB3B0BAF264613DD0BBBBBA15875B3D2A
:105370008A6BC6BAB753553DD2BED0BAC1CD4E3DE9
:10538000B4B1DABA34F8473D5C40E4BA31D6403DB6
:105390001967EDBAF86A393D7522F6BAE4B9313DBC
:1053A000296FFEBA6BC6293D0A2503BB1A94213D1D
:1053B00025D806BB9826193D8F4F0ABBA081103D0A
:1053C000068A0DBBFFA8073D5C8610BB3441FD3C3F
:1053D0008C4313BBC1D8EA3C9CC015BBAE20D83C63
:1053E000B6FC17BB1721C53C22F719BB30E2B13C14
:1053F00040AF1BBB4C6C9E3C8F241DBBBAC78A3C84
:10540000A0561EBBC3F96D3C2E451FBB7928463CF8
:105410000AF01FBB7A2C1E3C1F5720BB652DEC3BAE
:10542000787A20BB29F09B3B425A20BB1086173B61
:10543000B4F61FBB1C0A07B934501FBBD7C027BB2B
:105440003C671EBB0A14A3BB623C1DBB3BB2F1BB55
:1054500056D01BBB33CD1FBCE5231ABB305646BC10
:10546000F03718BB2C646CBC800D16BBC5F388BC30
:10547000ADA513BB7C689BBCA70111BBAF88ADBCBD
:10548000BA220EBB074DBFBC4E0A0BBB4EAED0BC02
:10549000D9B907BB8CA5E1BCEF3204BBE72BF2BC4A
:1054A000387700BB691D01BDDF10F9BAF0E508BD12
:1054B000C9D0F0BA746C10BD0332E8BA04AE17BD9F
:1054C0007038DFBAC9A71EBD21E8D5BA0A5725BD75
:1054D0005745CCBA34B92BBD5654C2BAD8CB31BD1E
:1054E0009E19B8BAA48C37BDB499ADBA73F93CBD56
:1054F00045D9A2BA3B1042BD1BDD97BA24CF46BDA9
:10550000FBA98CBA74344BBDDB4481BA9C3E4FBDC1
:1055100072656BBA31EC52BD40F153BAF73B56BDE0
:1055200055373CBAD52C59BDFE4124BADCBD5BBD14
:105530009A1B0CBA4AEE5DBD279DE7B985BD5FBDDC
:10554000C8CAB6B91B2B61BD09D585B9C43662BDC1
:10555000CCA129B965E062BD1F4D8FB80B2863BD92
:10556000D1EED037EF0D63BDD303F7386C9262BD37
:10557000545C5C3910B661BD14429E398D7960BDB2
:1055800071E8CD39BCDD5EBD350DFD39A1E35CBDF3
:105590004ECE153A698C5ABD98C12C3A60D957BD88
:1055A000E556433A05CC54BDD684593AF16551BD10
:1055B00037426F3AE8A84DBD0743823AD29649BDBB
:1055C000CEA38C3AB33145BD30BF963AB97B40BDCE
:1055D0000D91A03A32773BBD5F15AA3A852636BDBC
:1055E0005348B33A428C30BD3626BC3A12AB2ABD82
:1055F0006BABC43AB68524BD9ED4CC3A121F1EBDF7
:10560000869ED43A1D7A17BD1D06DC3AEC9910BD72
:105610007008E33AA98109BDCFA2E93A933402BDEB
:10562000B6D2EF3AF86BF5BCC495F53A9E12E6BCDB
:10563000C9E9FA3A0064D6BCDDCCFF3A3267C6BC91
:105640009C1E023B5D23B6BC9A1C043BCD9FA5BCAF
:10565000C2DF053BD2E394BC7D67073BE5F683BC24
:1056600047B3083BEFC065BCC8C2093B425043BCCE
:10567000B0950A3BD7AA20BCD42B0B3BC3BFFBBBC6
:1056800022850B3B32FDB5BB9FA10B3BC15860BBD4
:1056900071810B3BA9AEA9BACC240B3BEE35593A2C
:1056A0000F8C0A3B8BD9403BA0B7093B9548A53BE3
:1056B0000DA8083B9C9CE93BFA5D073BCDA5163C39
:1056C0001BDA053B511C383C4A1D043BA823593CBE
:1056D0007128023BC1AD793C28F9FF3A72D68C3C67
:1056E0009635FB3ACE899C3C9708F63A59EAAB3C92
:1056F000B674F03AA3F1BA3CA57CEA3A6C99C93C7D
:105700005623E43AA4DBD73CC56BDD3A5CB2E53CFA
:105710003559D63AF017F33CF7EECE3A7003003D18
:105720008930C73AF63C063D8221BF3A01360C3D2E
:10573000ADC5B63A2EEC113DDD20AE3A345D173DD5
:105740001837A53AEF861C3D6E0C9C3A5167213DF7
:105750001AA5923A79FC253D5505893AA5442A3D7A
:105760000F637E3A313E2E3D425C6A3AA1E7313DFD
:105770004DFF553AA03F353D5555413AF644383D29
:105780009D672C3A94F63A3D823F173A90533D3D3F
:105790006FE6013A2A5B3F3DC8CBD839C30C413D87
:1057A000D28EAD39DF67423D15298239316C433DD8
:1057B000785B2D398D19443D89BFAC38EC6F443D81
:1057C000DF81F5B4736F443D2F1CAEB86318443DC0
:1057D00077342DB92F6B433D2C6481B96868423D05
:1057E00047D2ABB9C410413D34D2D5B91D653F3D58
:1057F000C751FFB97B663D3D931F14BAFE153B3D73
:105800005E4428BAEC74383DA30E3CBAB284353DF0
:10581000F3754FBADA46323D087262BA12BD2E3DB8
:10582000D8FA74BA25E92A3D488483BA03CD263DC7
:10583000C7498CBAB66A223D41CA94BA64C41D3DB8
:105840001E029DBA52DC183D03EEA4BAE1B4133D2A
:105850009E8AACBA8E500E3DD9D4B3BAE5B1083D9C
:10586000A6C9BABA9ADB023D4566C1BACBA0F93CDB
:10587000FDA7C7BA4E26ED3C548CCDBA884DE03C0E
:10588000F010D3BA781CD33CAB33D8BA3C99C53CA2
:1058900081F2DCBA16CAB73CA44BE1BA5BB5A93CAD
:1058A0006D3DE5BA85619B3C75C6E8BA20D58C3C58
:1058B00074E5EBBA8E2D7C3C4899EEBA695A5E3C91
:1058C00021E1F0BA3E3E403C39BCF2BABAE6213C96
:1058D000112AF4BA7861033C642AF5BA5A78C93BB4
:1058E000FDBCF5BA1A098C3BEFE1F5BA3D211D3B31
:1058F0008699F5BAE451093A21E4F4BA2D3BB0BADD
:105900006BC2F3BAD0FE51BB2B35F2BAB38CA5BB38
:105910006A3DF0BA0D9CE1BB4DDCEDBA90890EBC3E
:105920002B13EBBAF7EB2BBC98E3E7BA67E848BC5C
:10593000424FE4BA557265BC0958E0BAA7BE80BCB4
:10594000F1FFDBBAA97E8EBC4149D7BA3BF39BBCC1
:105950004C36D2BA9F16A9BC94C9CCBA3CE3B5BCAC
:10596000CA05C7BA9753C2BCBEEDC0BA7462CEBCFA
:105970006584BABAB80ADABCCCCCB3BA8847E5BCFD
:1059800034CAACBA2A14F0BCF17FA5BA276CFABCB1
:1059900076F19DBA9F2502BD5B2296BAB4D606BDAC
:1059A0003F168EBA64470BBDE5D085BAEC750FBDC6
:1059B0006CAC7ABA9D6013BD2D5469BAEE0517BD63
:1059C0001CA157BA72641ABD619B45BAE07A1DBD2D
:1059D000484B33BA0C4820BD36B920BAF3CA22BDB1
:1059E000A9ED0DBAA90225BD65E2F5B96FEE26BD98
:1059F000EB98CFB9A08D28BD4410A9B9C0DF29BD4F
:105A0000DB5982B975E42ABD4F0E37B9829B2BBD95
:105A100097A6D2B8D6042CBD5C2CDDB77A202CBD5D
:105A2000A9604738A3EE2BBD6C06FE38A06F2BBDD6
:105A300040B94B39E5A32ABD11EC8B390D8C29BD3A
:105A40001A9FB139D12828BD0BE5D639077B26BD71
:105A50007AADFB39AB8324BD1DF40F3ADA4322BD86
:105A6000B6C2213ACFBC1FBDC13A333AE5EF1CBDE7
:105A7000A054443A93DE19BDE708553A6E8A16BD24
:105A80005F50653A2DF512BD0024753A9D200FBD7B
:105A9000803E823AAA0E0BBD63AA893A55C106BD63
:105AA00087D2903AC33A02BDE6B3973A47FAFABCB6
:105AB0008E4B9E3A8C15F1BCC596A43A22CCE6BC1E
:105AC000E692AA3AF122DCBC753DB03A1C1FD1BC6B
:105AD0002194B53AD8C5C5BCC494BA3A8C1CBABC9A
