:020000040800F2
:1000000000000220E11D0008F5030008F9030008C4
:10001000FD030008010400080504000800000000BA
:1000200000000000000000000000000009040008BB
:100030000D04000800000000110400081504000869
:100040002D1E00082D1E00082D1E00082D1E000864
:100050002D1E00082D1E00087D0400082D1E00081E
:100060002D1E00082D1E00082D1E00088D100008F2
:100070002D1E00082D1E00082D1E00082D1E000834
:100080002D1E00082D1E00082D1E00082D1E000824
:100090002D1E00082D1E00082D1E00082D1E000814
:1000A0002D1E00082D1E00082D1E00082D1E000804
:1000B0002D1E00082D1E0008810400082D1E0008BA
:1000C0002D1E00082D1E00082D1E00082D1E0008E4
:1000D0002D1E00082D1E00082D1E00082D1E0008D4
:1000E0002D1E00082D1E00082D1E00082D1E0008C4
:1000F0002D1E00082D1E00082D1E00083D100008B2
:100100002D1E00082D1E00082D1E0008DD10000801
:100110002D1E00082D1E00082D1E00082D1E000893
:100120002D1E00082D1E00082D1E00082D1E000883
:100130002D1E00082D1E00082D1E00082D1E000873
:100140002D1E00082D1E00082D1E00082D1E000863
:100150002D1E00082D1E00082D1E00082D1E000853
:100160002D1E00082D1E00082D1E00082D1E000843
:100170002D1E00082D1E00082D1E00082D1E000833
:100180002D1E00082D1E0008034B1A6812B11A68B4
:10019000013A1A60704700BF0000002008B5022035
:1001A00000F0DEFF002008BD0020602100F014BA3E
:1001B000C020602100F010BA0020704708B501206F
:1001C00001F004FE012802D0B7EE000A08BD01F0DC
:1001D000F7FD07EE100ADFED037AB8EE470A20EECE
:1001E000270A08BD0000802F2DE9F0413548364F21
:1001F000DFF8E080354E9CB0012101F073FC4FF434
:100200008060012101F092FC4FF080630024DFF850
:10021000C8C00D934FF4006E01254FF400524FF407
:10022000807338460DA9CDF83CC0CDF850E015924A
:100230001693CDF838801094129413941794189450
:100240001A941B941195199501F090F93846294696
:1002500001F0C4F904220DEB020103231C480192B2
:100260008DF808308DF80B4001F05AFA03A803947A
:1002700004940594069401F05DF830464FF0007345
:1002800007A907938DF820408DF8215009940B940D
:100290008DF8305001F022F823462A4630460C21D2
:1002A00001F066F83046294601F0BEF8304629468E
:1002B00001F0B0F83046294601F050F81CB0BDE816
:1002C000F08100BF040040001064024000220140A1
:1002D000000802404C220140880000202DE9F04730
:1002E000012000F019FF002000F016FF022000F0AE
:1002F00013FF032000F010FF002000F031FF00206A
:10030000014600F049FF0121402001F0F7FB0120E8
:1003100001F048FDFFF768FF2A4801F075F82A4A06
:100320002A4B1268A3FB02121209B2F1807F47D256
:10033000274BDFF8B8802749274CDFF8B4E027487F
:10034000274D284E4FF0000C02F1FF3A4FF0F00914
:100350000722C3F804A088F82390C3F808C01A60E5
:100360000860C4F800E000F01DF9462104204BF6B7
:10037000803200F01FFC1C484FF4C0710027A846D3
:1003800000F028FE002000F049FF10B195F82C3154
:1003900063B1002000F042FF04460028F2D10320A0
:1003A00000F0ECFE776085F82C41EBE70123032099
:1003B00088F82C3100F0D4FE4FF07C537360E1E7F5
:1003C000FEE700BF002201402C0000201F85EB51FA
:1003D00010E000E084DE00206CDE0020ACCB0020CA
:1003E00020DD0020000000204CDB002000ED00E0BC
:1003F0008C000020704700BFFEE700BFFEE700BF93
:10040000FEE700BFFEE700BF704700BF704700BFB8
:10041000704700BF10B5134CFFF7B6FE2368FBB959
:10042000FFF7CCFE104BDFED117A1A88DFED106A72
:10043000DFED105A104B92B207EE102AB8EE476A61
:10044000B1EE047A26EE276AE0EE257AC6EE266A39
:10045000C3ED007A36EE877ABCEEC77A84ED007A77
:1004600010BD00BF000000208800002000004842AE
:1004700000007F430000FA4418000020704700BFCE
:10048000704700BF404A414BD2F88810404841F4C1
:100490007001C2F888101968002241F0010119604A
:1004A0009A60196821F0847121F4803119605860D4
:1004B000196882B021F480211960DA6000920192FB
:1004C0001A6842F480321A601A4603E0009BB3F5C2
:1004D000A06F09D0136803F400330193009B01332C
:1004E0000093019B002BF1D0284B1B6813F40033C1
:1004F00018BF01230193019B012B14D0234A254BE4
:10050000916821F400019160C2F88430136843F0CF
:100510008063136013681B01FCD51B4B4FF0006216
:100520009A6002B07047194B1B4A186C1B4940F087
:1005300080501864106840F4804010609A689A6097
:100540009A6842F400429A609A6842F4A0529A6013
:1005500059601A6842F080721A6019460B680B4A9B
:100560009801FBD50E4B40F205611960936823F0AA
:1005700003039360936843F002039360936803F06E
:100580000C03082BFAD1B9E700ED00E00038024077
:1005900010300024804000300070004008544007B4
:1005A000003C024070B4084B084D094C0948002239
:1005B0001A60012600232E80238019464FF4A4627E
:1005C00070BC01F0CFBC00BF60DE002068DE002000
:1005D0005CDE002088DE00202DE9F04FC24ADFF803
:1005E0005CC3C24CC24E23882DED088BD2ED00BAFD
:1005F000C04A9CED008A92ED009ADFF844C3BE4ADF
:10060000DCED008A158885B006EB40060291002BD0
:1006100040F03A81B94B0393D3ED009A4436B84C7D
:10062000DFF82083DFF820A3DFF82093DFEDB5AA01
:100630009FEDB5AA9FEDB5BADFF8F4B201962F464B
:10064000B34A9FEDB47A92ED006AB34BDFEDB36A23
:10065000D3ED007ADFF8F8C2AF4826EE2A6A86EEBC
:10066000077A77EE277A8CED007AF4EEE67AF1EEEF
:1006700010FAC8BF77EEE67AB0EE670AC0ED007AEE
:1006800001F004FD9FEDA67A029AF7EE007AE0EE03
:10069000077AA2F110039BB2029367EEAB7AC7EE22
:1006A000A99A19EE900A02F059FC8DA3D3E9002310
:1006B00002F008FD002840F0D280F6EE007AF4EE59
:1006C000679AF1EE10FAC8BFF0EE679A79EEC99A10
:1006D000DFED947ADDF804C0934D69EEA79AACF192
:1006E000400639EE299AF7EE007A38EE098AB4EE20
:1006F000E78AF1EE10FA2CDB38EE678AB6EE000AD4
:1007000068EE0ABACBEE89BA3BEEC00A01F074FC7F
:1007100080B207EE900AF8EE676A00F03F007BEEC9
:10072000E66A3B4605EBC00292ED017AD2ED007A13
:10073000E6EE877A04EB8302403092ED007A80B2D5
:1007400077EE277A0133B0F5905F9BB2C2ED007A65
:10075000E8D33B1D04EB8303B6EE007AD3ED005AD9
:10076000D8F8001099ED005A9AED006A77EE487AB1
:10077000F7EE006A75EEA77AC3ED007A04EB870303
:10078000D3ED005AD1ED007A75EEE85A65EE277A7E
:10079000E5EE878AE6EE287AF4EEE67AF1EE10FAD4
:1007A00042DDF0EE667A47F6FF7260480368E3ECDC
:1007B000017ACBEB030CCDF800C0DFF870C126F84E
:1007C000042CCCF80030009B26F8022C4DF6BF20FC
:1007D000834201F104014DF6BF23C8F80010C4BFE5
:1007E0005348CCF80000CBEB0101994207F1010717
:1007F000C4BF4F4BC8F80030BFB2B7F5807F1FD0E1
:10080000DDF804C0043666457FF46BAF02980CF146
:10081000400CCDF804C028B3334ADDF80CC0D2ED4B
:1008200000BADCED009A0BE7BFEE007AF4EEC77A6F
:10083000F1EE10FA49D5F0EE477A48F20102B4E73A
:100840002F484FF4907200F5806101F0F1FA3948B9
:1008500000214FF4806201F085FB0027D0E7DFED37
:10086000369A33E73548234A354BDFF88CC080EDA4
:10087000008A82ED009AC3ED008AACF8007005B0E2
:10088000BDEC088BBDE8F08F1C480390D0ED009ABA
:100890008BEEA99A19EE100A02F060FB10A3D3E9BF
:1008A000002302F00FFC68B9F6EE007AB4EE679A06
:1008B000F1EE10FAC8BFB0EE679A00232380B6EEBF
:1008C000008AABE69FED1C9AF7E727EE8B7ABDEE28
:1008D000C77A17EE102A92B267E700BFAFF3008025
:1008E000F168E388B5F8E43E1800002068DE0020D7
:1008F0004CDB002074DE00205CDE002008000020BD
:1009000088DE0020DB0FC9420000804200FEFF4667
:100910001400002000803B4750DE0020DB0FC94060
:100920000AD7A33C0000803D1431000884DE00207B
:100930008C000020A8DF0020ACC5273770DE002027
:1009400060DE00206CDE0020040000200C0000208F
:1009500078DE0020AFF3008070B58D4C4FF4961315
:1009600006460D46236005E023685A1E2260002BD0
:1009700000F0018187484FF4003101F04BF8002866
:10098000F2D18448012100F0FFFF4FF4805323602F
:1009900005E023685A1E2260002B00F0EC807D48A1
:1009A0007D4901F02BF80028F3D07A4894210022E9
:1009B00001F006F84FF48053236005E023685A1EC7
:1009C0002260002B00F0D7807248744901F016F8BD
:1009D0000028F3D06F48314601F00AF84FF48053F5
:1009E000236005E023685A1E2260002B00F0C380BC
:1009F00068486B4901F002F80028F3D065482946A1
:100A000000F0F6FF4FF49613236005E023685A1EAA
:100A10002260002B00F0B9805E48624900F0FAFFC6
:100A20000028F3D05B48012100F0BCFF4FF496137F
:100A3000236005E023685A1E2260002B00F09F808F
:100A400054484FF4003100F0E5FF0028F2D151483E
:100A5000012100F099FF4FF48053236005E02368E3
:100A60005A1E2260002B00F08A804A484A4900F052
:100A7000C5FF0028F3D047489421002200F0A0FFD2
:100A80004FF48053236004E023685A1E2260002B39
:100A900075D04048414900F0B1FF0028F4D03146FC
:100AA0003C4800F0A5FF4FF48053236004E0236826
:100AB0005A1E2260002B62D036483A4900F0AAFF45
:100AC0000028F4D03348012100F05EFF4FF480533A
:100AD000236004E023685A1E2260002B4FD02D486B
:100AE0002D4900F08BFF0028F4D02A4894210122E0
:100AF00000F066FF4FF48053236004E023685A1E21
:100B00002260002B3BD0234E2749304600F082FF65
:100B10000028F3D03046002100F05CFF3046012170
:100B2000338B00F03FFF4FF48053236003E02368D2
:100B30005A1E22601BB317481C4900F06BFF0028A7
:100B4000F5D0144800F056FF4FF48053064623605A
:100B5000104A03E02368591E216083B113889B0566
:100B6000F8D40C48012100F035FF0A48104900F084
:100B70006DFF304605E0BDE87040FFF70FBBFFF7A3
:100B80000DFB281A18BF012070BDFFF707FB43E7D4
:100B900030000020005400400100030082000700E4
:100BA0008000070004000010020000104000001048
:100BB000000400102DE9F04F64298BB0914600F23B
:100BC0001E81D04BC1EB012183FB012AC917C1EB68
:100BD0006A1A5FFA8AFA0AF119085FFA88F8082097
:100BE000012100F07FFF02250024012706A9C64845
:100BF0008DF81C704FF0100BCDF818B08DF81D500B
:100C00008DF81E408DF81F4000F08AFD3946072000
:100C100000F068FF4FF4107306A9BC4806938DF8E6
:100C20001C508DF81D508DF81E708DF81F4000F07F
:100C300077FDB648B64E0621042200F0DDFD042201
:100C4000B248092100F0D8FD4FF4A05306A9B148DD
:100C500006938DF81C508DF81D508DF81E408DF8B0
:100C60001F4000F05DFDAC480421062200F0C4FDE9
:100C7000A8480A21062200F0BFFD7368AB4200F0CD
:100C80000081A548CDF818B006A900F049FDA1489B
:100C90000C21062200F0B0FD0223002480229D4892
:100CA0008DF81C3006A98DF81D3006928DF81E4077
:100CB0008DF81F4000F034FD96480721062200F011
:100CC0009BFD22469048102100F090FD44F6FF74F1
:100CD000013CFDD101228C48904D102100F086FD91
:100CE00001214FF4001000F015FF8D4800F098FD31
:100CF0004FF480674BF6FF7C4FF0330E4FF4804289
:100D0000884B8748ADF81EC00121ADF820E0ADF852
:100D100024200693ADF81C40ADF8227000F026FEAA
:100D20007F4806A900F0B2FD01210220FFF714FE62
:100D3000AF2104460420FFF70FFEAF2304448121B6
:100D400005202B71FFF708FE042104440620FFF75D
:100D500003FE414604442020FFF7FEFD41462120CA
:100D6000FFF7FAFD7368022B00F0AC809E21022091
:100D7000FFF7F2FD002104440A20FFF7EDFD736840
:100D8000022B044404D00E200421FFF7E5FD0444A7
:100D900000212720FFF7E0FD0F2127181F20FFF774
:100DA000DBFD0A2107441A20FFF7D6FD0A2107447C
:100DB0001B20FFF7D1FD012107444FF4004000F054
:100DC000A9FE594800F0D6FE00244FF4007302A992
:100DD0005548ADF80830ADF80E30CDF81090ADF8AC
:100DE0000A40ADF80C40ADF8144000F0F9FE73680D
:100DF000022B56D037B101200BB0BDE8F08F4FF079
:100E00007D08ECE67468DFF80881012C00F0908022
:100E10007268012A71D04548012100F063FE4FF04D
:100E20000050012100F076FE00240323102202A9C5
:100E300039488DF80C3002928DF80F4000F070FCAC
:100E400006A9204606940794099400F06FFF2046F7
:100E5000012100F083FF34480122712100F050FF8E
:100E60003322012301A88DF805408DF806408DF846
:100E700004208DF8073000F0F5F900200BB0BDE834
:100E8000F08F3846394600F02DFE03232248CDF876
:100E900018B006A98DF81F408DF81C3000F040FCFA
:100EA000FAE64FF00050012100F034FE204606A97A
:100EB00006940794099400F039FF2046012100F0C0
:100EC0004DFF97E701210820FFF746FD0121074666
:100ED0000920FFF741FDC02107440E20FFF73CFD2C
:100EE0003C44002104441420FFF736FD0021044453
:100EF0001520FFF731FD044438E70B48022100F0CC
:100F0000F5FEBAE71F85EB51000C024000040240D9
:100F100030000020000802400000024054DE0020A3
:100F200000540040A0860100003C00400100200069
:100F3000D8F80800214600F0D5FD3946D8F80C0055
:100F400000F04CFBD8F80C0000F078FA204B296830
:100F50001960D8F810505D6040224FF6FE714FF4D2
:100F6000006C4FF4005EDA601961D8F80C009F60E5
:100F700019464FF440324FF480694FF480755F6139
:100F8000DF621F635F639F63C3F81890C3F81CC0E0
:100F9000C3F820E05D629A6200F0E8FAD8F80C002D
:100FA0002246102100F05CFBD8F80C0008212246F4
:100FB00000F056FBD8F814308DF8043001A88DF8F5
:100FC00005708DF806708DF8074000F04BF91FE7AB
:100FD000F8E3002070B5154B154C0D464FF6FF7227
:100FE00019460646E068954294BF1D611A619E60ED
:100FF000E562636800F0BAFAE068012100F0EEFAF9
:101000000C48838B5B0502D4012100F05FFEE36A8C
:10101000094A4FF6FF718B4228BF0B46ED1A06EBCB
:10102000430625631660002070BD00BFF8E3002072
:1010300030000020003C0040B8E3002070B5114CA7
:10104000114BE068A169256B1E6800F0D1FA80B9E8
:10105000E068E1690B4C00F0CBFA00B970BD304696
:101060002946FFF7A1F8E068E169BDE8704000F0AB
:10107000DDBA30462946FFF79BF8E068A16900F029
:10108000D5FAE5E730000020B8E3002070B5114C38
:10109000114BE068A169256B1E6800F0A9FA80B9C0
:1010A000E068E1690B4C00F0A3FA00B970BD30466E
:1010B0002946FFF779F8E068E169BDE8704000F083
:1010C000B5BA30462946FFF773F8E068A16900F029
:1010D000ADFAE5E730000020B8E3002008B50C4881
:1010E000022100F01DFE58B10A4B5B68022B08D0AC
:1010F000FFF762F8BDE808400146054800F0F4BD7E
:1011000008BDFFF759F80146042000F03BFEEFE769
:10111000003C00403000002030B50F4D044683B045
:1011200055F82000012105EB440500F0DBFC0B4ADB
:101130002B8A52F8240000930222012300246946DE
:101140008DF804308DF807308DF806408DF80520B5
:1011500000F0E6FA03B030BD1CC1000864000020B6
:10116000044A054B02EB400253F82030128A1A83DE
:10117000704700BF1CC1000864000020044A054BF2
:1011800002EB400253F82030128A5A83704700BFA6
:101190001CC100086400002030B50446012087B05F
:1011A0000D46014600F09EFC4FF48040012100F006
:1011B000BDFC06AB1849012201EB840443F8102D55
:1011C0002069194600248DF80C408DF80F4000F07E
:1011D000A7FA012D01D007B030BD2146204600F00E
:1011E00029F8082304A88DF8153004958DF81440CB
:1011F0008DF8165000F054FA0F23062201A88DF83E
:1012000007508DF804208DF805308DF8063000F079
:1012100029F807B030BD00BF6400002008B5044BBA
:1012200003EB80000121006900F0DAFA08BD00BF7D
:101230006400002001F0FC0303F1804303F59C33BC
:1012400001F0030110B489009C680F228A4024EA4F
:1012500002029A609A685DF8044B884002439A60E3
:10126000704700BFC378F0B463B90378194A5909CD
:10127000203103F01F03012000FA03F342F821306C
:10128000F0BC7047144B4778DA68857803781149C9
:10129000D243C2F30222C2F104040F26E4B207FAD9
:1012A00004F446FA02F2E4B22A40224303F1604316
:1012B00003F561431201D2B283F8002303780120C1
:1012C00003F01F025B0900FA02F241F82320F0BC90
:1012D000704700BF00E100E000ED00E04268D1F897
:1012E0000CC0134B2DE9F00122F040720C6891F80C
:1012F00004800F698E684D7922F48072224342EA9D
:101300000822426084684CEA0702324323401343B8
:1013100043EA450383600B7DC26A013BDBB222F4E2
:10132000700242EA0353C362BDE8F001704700BF98
:10133000FDF7FFC070B490E84200064A8568C468B3
:10134000054B506831432943214303400B4353600D
:1013500070BC704700230140E030FCFF836819B97E
:1013600023F001038360704743F0010383607047FB
:10137000092970B41ED9A1F10A0404EB4404C5681C
:101380000726A64003FA04F425EA06032343062AA7
:10139000C3601CD90C2A28D90D3AC46A02EB820218
:1013A0001F23934024EA030301FA02F21A43C262A4
:1013B00070BC704701EB410405690726A64003FA9B
:1013C00004F425EA06032343062A0361E2D8013A1E
:1013D000446B02EB82021F23934024EA030301FAC9
:1013E00002F21A43426370BC7047073A046B02EB87
:1013F00082021F23934024EA030301FA02F21A43F4
:10140000026370BC704700BF836843F08043836011
:10141000704700BF836819B923F4807383607047F5
:1014200043F4807383607047836819B923F40073B1
:101430008360704743F400738360704710B4374A89
:101440000468002324F00104212190420460036019
:1014500043608360C360036141614DD0304B98426B
:1014600035D0304B984239D02F4B98423DD02F4B3E
:10147000984247D02E4B984248D02E4B98421DD0D0
:101480002D4B98421ED02D4B984243D02C4B984266
:101490001DD02C4B984221D02B4B984225D02B4B62
:1014A00098422FD02A4B984230D02A4B984205D0F0
:1014B000294B984206D05DF8044B7047274A43F801
:1014C000942CF8E74FF03D5243F8AC2CF3E74FF47F
:1014D000746243F8202C5DF8044B70474FF474128B
:1014E00043F8382C5DF8044B70474FF0746243F8B2
:1014F000502C5DF8044B7047194B5DF8044B3D22AE
:101500009A607047174A43F8642CD4E7164A43F8A8
:101510007C2CD0E73D2243F8082CCCE71060024039
:101520002860024040600240586002407060024003
:1015300088600240A0600240B8600240106402402F
:1015400028640240406402405864024070640240D3
:1015500088640240A0640240B864024000003D205C
:10156000006002403D000020400F0020CA680B6868
:10157000D0F800C02DE9F0074F698E69CD690C6A7B
:10158000D1F83490D1F8388042EA030A4AEA0707D2
:101590003E434B6A4F6835432C4344EA03028B6A4F
:1015A0000D4ECC6A0D691A4342EA090949EA080856
:1015B0000CEA060648EA06060B6B89680660426973
:1015C000234322F007021343436145608760C160F3
:1015D000BDE8F007704700BF3F801CF0036819B9F1
:1015E00023F001030360704743F001030360704779
:1015F0000B4B0C4A10B40C4CA0428CBF1046184642
:101600008B004CBF436803685DF8044B21F0F02168
:1016100021F0821119420CBF00200120704700BF49
:1016200000600240006402400F64024010B4094AA6
:10163000094C0A4BA0428CBF1046184611F0005FBF
:1016400021F0F02121F0821114BFC16081605DF8AA
:10165000044B7047006402400F6402400060024087
:101660000B060CD54369AAB143F08003802943617E
:101670000FD0036801F01E011943016070478029F3
:1016800007D0002AF5D1036801F01E0123EA010109
:101690000160704723F0800380294361F3D17047D4
:1016A000837970B42BB31D4B01681E6802794579AC
:1016B000CC4326401E605E6802F1804202F59E32F5
:1016C00034405C6014682143116002689868D1431B
:1016D00008409860D868102D01EA0001D96014D044
:1016E00005F1804303F59E3370BC19680A431A6004
:1016F00070470379016803F1804303F59E3370BCA2
:101700001A6822EA01021A607047996811439960C9
:10171000D9680A43DA6070BC704700BF003C0140E2
:1017200000222DE9F00713460E6801274FF0030849
:1017300004E00133102B02F102022ED007FA03F469
:1017400004EA0605A542F4D1D0F8009091F804C04F
:1017500008FA02F4E44304EA0909C0F80090D0F85A
:1017600000900CFA02FA0CF1FF3C5FFA8CFC4AEA9A
:101770000909BCF1010FC0F8009011D9C56891F8B2
:1017800007C02C40C460C5680CFA02F401332C4336
:10179000102BC46002F10202D0D1BDE8F0077047FF
:1017A000D0F808A091F8059091F806C004EA0A0A5A
:1017B000C0F808A0D0F808A009FA02F949EA0A0915
:1017C000C0F80890D0F8049029EA050545604568FE
:1017D0000CFA03FC1FFA8CFC4CEA05054560CDE7CA
:1017E000036919420CBF0020012070470AB94183E8
:1017F00070470183704700BFCB0800EB830001F006
:10180000070110B48900046A0F238B4024EA030304
:101810000362036A5DF8044B8A4013430362704716
:1018200008B5174B984212D0164B98421BD0164B56
:10183000984200D008BD4FF40000012100F082F969
:101840004FF400000021BDE8084000F07BB94FF4E0
:101850000010012100F076F94FF400100021BDE8DE
:10186000084000F06FB94FF48000012100F06AF9E0
:101870004FF480000021BDE8084000F063B900BFCC
:101880000054004000580040005C0040F0B50446A1
:1018900085B068460D46A68800F0DCF8029930480D
:1018A0002A68DFF8C4C0A0FB013026F03F063604EA
:1018B000800C360C87B23E43A680238823F00103B8
:1018C0001B041B0C6245238023D85300B1FBF3F3A8
:1018D0009BB2032B07F1010798BF04232784A3833E
:1018E00023886E89A8882989AA899BB243F00103BD
:1018F0002380238823F4816323F002031B043043F5
:101900001B0C03430A439BB292B22380228105B091
:10191000F0BDEE884BF6FF739E421AD002EB8202B6
:1019200002EB8202B1FBF2F39BB243F48043C3F3B8
:101930000B020AB943F001034FF49671094A01FB07
:1019400000F082FB00108009013043F40043208442
:10195000C5E702EB4202B1FBF2F39BB2E7E700BF3F
:1019600083DE1B43D34D6210A0860100038829B992
:1019700023F001031B041B0C038070479BB243F050
:1019800001030380704700BF038829B923F48073E3
:101990001B041B0C038070479BB243F480730380CD
:1019A000704700BF038829B923F400731B041B0C84
:1019B000038070479BB243F400730380704700BFFD
:1019C0001AB901F0FE010182704741F00101018264
:1019D000704700BF038829B923F480631B041B0CE4
:1019E000038070479BB243F480630380704700BF5D
:1019F00001827047008AC0B2704700BF828A038BA1
:101A000090B240EA034021F07F4318400B1A58423D
:101A10005841704782B000230A0F00930193019050
:101A20000092009B21F07F4153B1019B143301933D
:101A3000019B1B6819420CBF0020012002B07047B7
:101A4000019B1833090C0193F2E700BFC94389B227
:101A5000818270471F4A936803F00C03042B10B473
:101A60001BD0082B1CD01C4B03601A491B4A8C68E6
:101A7000C4F30314145DE34043608C68C4F3822410
:101A8000145D23FA04F4846089685DF8044BC1F3A3
:101A90004231525CD340C3607047114B0360E4E7AE
:101AA00054685168526863024CBF0D4B0A4B01F0F9
:101AB0003F01C2F38812B3FBF1F303FB02F3054AC3
:101AC0005268C2F3014201325200B3FBF2F30360E9
:101AD000CBE700BF003802400024F400780000206B
:101AE00000127A00044B1A6B19B922EA000018633D
:101AF000704710431863704700380240044B5A6B1C
:101B000019B922EA000058637047104358637047C0
:101B100000380240044B1A6C19B922EA000018641C
:101B2000704710431864704700380240044B5A6CE9
:101B300019B922EA0000586470471043586470478E
:101B400000380240044B1A6A19B922EA00001862F0
:101B5000704710431862704700380240044B5A6ABD
:101B600019B922EA00005862704710435862704762
:101B70000038024008B5174B984212D0164B9842D5
:101B80001BD0164B984200D008BD4FF400400121F5
:101B9000FFF7D8FF4FF400400021BDE80840FFF7F1
:101BA000D1BF4FF480500121FFF7D8FF4FF4805090
:101BB0000021BDE80840FFF7D1BF4FF4804001216C
:101BC000FFF7C0FF4FF480400021BDE80840FFF759
:101BD000B9BF00BF0030014000380040003C004069
:101BE000838B8A6823F47B6323F00F031B042DE9A6
:101BF000F0071B0C022483830484B0F81CC0A242AB
:101C00001FFA8CFC50D02E4B8C889D68002C0CBF8A
:101C10004FF020094FF040092D0240D4284B294FA6
:101C2000D3F88450D3F88460D3F804A0CB880AF0AA
:101C30003F0AC5F38818B7FBFAF7C6F3027608FB2C
:101C400007F7B3F5007FB7FBF6F630D0B6FBF9F532
:101C500005EB85056D00B5FBF2F2053292B21A4D27
:101C6000A5FB0262D2085508AE1EB6B202F0010210
:101C7000FD2E94BF45EA022202220F884E888D89EC
:101C80004CEA070141F4006131432943134389B20F
:101C90000C439BB203848483BDE8F00770479D68C2
:101CA00025F400059D60B9E78C88CB88E5E7360A06
:101CB00006EB86067600B6FBF2F2053292B2CEE76C
:101CC0000038024000127A00CDCCCCCC838B29B9ED
:101CD00023F480631B041B0C838370479BB243F483
:101CE00080638383704700BF8181704783889BB284
:101CF0001AB923EA01018180704719438180704736
:101D00000123090903FA01F1838889B29BB21AB948
:101D100023EA01018180704719438180704700BF29
:101D2000038919420CBF00200120704770B491E86C
:101D300060008C68084BC9681A6835432C4340F62C
:101D4000FE768640214322EA060201FA00F00243B1
:101D50001A6070BC704700BF00740040084B39B96E
:101D60001A68012101FA00F022EA000018607047A9
:101D70001A68012101FA00F010431860704700BF93
:101D80000074004082B00022054B01920193019B38
:101D9000083318440190019B196002B0704700BFDE
:101DA00000740040054B1A6818B922F004021A604A
:101DB000704742F004021A60704700BF00080650E6
:101DC000014B9868704700BF00080650034B5B68E2
:101DD00018420CBF00200120704700BF00080650C9
:101DE000002100F004B80C4B5B58435004310B4801
:101DF0000B4B42189A42FFF4F6AF0A4A00F003B8C0
:101E0000002342F8043B084B9A42FFF4F9AFFEF777
:101E100039FBFEF763FA704724C500080000002074
:101E2000880000208800002034E40020FFF7FEBF77
:101E3000844641EA000313F003036DD1403A41D3D5
:101E400051F8043B40F8043B51F8043B40F8043B94
:101E500051F8043B40F8043B51F8043B40F8043B84
:101E600051F8043B40F8043B51F8043B40F8043B74
:101E700051F8043B40F8043B51F8043B40F8043B64
:101E800051F8043B40F8043B51F8043B40F8043B54
:101E900051F8043B40F8043B51F8043B40F8043B44
:101EA00051F8043B40F8043B51F8043B40F8043B34
:101EB00051F8043B40F8043B51F8043B40F8043B24
:101EC000403ABDD2303211D351F8043B40F8043BC4
:101ED00051F8043B40F8043B51F8043B40F8043B04
:101EE00051F8043B40F8043B103AEDD20C3205D3D4
:101EF00051F8043B40F8043B043AF9D2043208D0CC
:101F0000D2071CBF11F8013B00F8013B01D30B883D
:101F100003806046704700BF082A13D38B078DD01B
:101F200010F003038AD0C3F10403D21ADB071CBFED
:101F300011F8013B00F8013B80D331F8023B20F857
:101F4000023B7BE7043AD9D3013A11F8013B00F890
:101F5000013BF9D20B7803704B7843708B78837018
:101F600060467047F0B4840743D0541E002A3ED028
:101F7000CDB2034603E0621E002C38D0144603F8AD
:101F8000015B9A07F7D1032C2AD9CDB245EA052582
:101F90000F2C45EA054515D9A4F110073F0903F1B7
:101FA000100606EB07161A46156055609560D56059
:101FB0001032B242F8D104F00F040137032C03EBC6
:101FC00007130DD91E462246043A032A46F8045B3D
:101FD000FAD8221F22F003020432134404F003044F
:101FE0002CB1C9B21C4403F8011BA342FBD1F0BCC5
:101FF000704714460346C6E710B410EE100AC0F34B
:10200000C751A1F17F031E2B83B028DC5C1C21DBB0
:10201000162B4FEAD0740BDDC0F3160040F400001D
:102020009639884004B1404203B05DF8044B7047D4
:10203000154B03EB8403D3ED007A37EE807A8DEDF8
:10204000017A9DED017A37EE677A17EE103A23F0A8
:10205000004262B9002003B05DF8044B7047FDEE0A
:10206000C07A17EE900A03B05DF8044B7047C3F3D3
:102070001600C3F3C75340F40000C3F19603D840E1
:10208000002CD1D0CFE700BF4CC1000800B510EE46
:10209000103A1B4A23F00043934283B01ADDB3F198
:1020A000FF4F04DB30EE400A03B05DF804FB6846E6
:1020B00000F02AF800F0030001289DED000ADDED94
:1020C000010A15D002280DD0A8B100F063F9B1EED5
:1020D000400AE9E7DFED0B0A002000F0C3FC03B083
:1020E0005DF804FB012000F0BDFCB1EE400ADBE727
:1020F00000F050F9D8E7012000F0B4FCD4E700BFAD
:10210000D80F493F0000000070B510EE103A934A16
:1021100023F00044944286B010EE106A054666DD56
:102120008F4A94421ADC002BDFED8E7A8E4A24F01F
:102130000F0440F3DB80944270EE677A66D09FED27
:102140008B7A77EEC76A012077EEE67AC5ED006AF2
:1021500037EEC77A85ED017A06B070BD844A9442A5
:1021600066DDB4F1FF4F49DAE215863AA4EBC254BA
:1021700007EE104AFDEEC77ADFED7E6AF8EEE77AE9
:1021800037EE677ACDED037A27EE267AFDEEC77A31
:10219000F8EEE77A37EE677ACDED047A27EE267A05
:1021A000B5EE407AF1EE10FA8DED057A40F0B1808F
:1021B000F5EE407AF1EE10FA0CBF012302236E49CE
:1021C00002208DE8030003A8294600F065F9002EDF
:1021D00012DA95ED007AD5ED017AB1EE477AF1EE9B
:1021E000677A404285ED007AC5ED017A04E000226D
:1021F00085ED000A4260002006B070BD70EE407AA6
:102200000020C5ED017AC5ED007AF5E7DFED5B6AE8
:102210009FED5B7A77EEE67A012077EEC76A77EE7C
:10222000E67AC5ED006A37EEC77A85ED017AE3E715
:1022300000F060FCDFED536ADFED4A5ADFED4B7AC8
:10224000B6EE007AA0EE267ABDEEC77AF8EEC76A3F
:1022500017EE100AB1EE666A1F28A6EE250A66EE92
:10226000A77A1DDC484B411E24F0FF0253F82130B1
:102270009A4215D030EE677A85ED007A30EE470A43
:10228000002E70EE677AC5ED017AB5DAB1EE477AC5
:10229000F1EE677A85ED007AC5ED017A4042ABE751
:1022A00030EE677AE41517EE102AC2F3C753E31A2B
:1022B000082BE1DD9FED317A9FED315AF0EE405A67
:1022C000E6EE075A70EE657AE6EE077AD6EE857A84
:1022D00035EEE77A17EE102AC2F3C753E41A192C29
:1022E0002CDC85ED007AB0EE650AC7E7944270EE0B
:1022F000277A10D09FED1D7A77EE876A4FF0FF3076
:1023000077EEE67AC5ED006A37EE877A85ED017AD9
:1023100072E7032353E7DFED196A9FED197A77EE31
:10232000A67A4FF0FF3077EE876A77EEE67AC5ED52
:10233000006A37EE877A85ED017A5DE79FED137AC3
:102340009FED135AB0EE650AA6EE070A75EEC07A45
:10235000E6EE077AD6EE857A8CE700BFD80F493FC4
:10236000E3CB1640800FC93FD00FC93F43443537F8
:10237000800F494300008043D4C100080044353732
:1023800008A3852E84F9223F54C1000800A3852E9E
:1023900032318D2410EE103A23F00043B3F1485F40
:1023A0002CDAFDEEC07A17EE903A002B60D060EE8A
:1023B000007ADFED314A9FED315ADFED315A9FED62
:1023C000316ADFED316A9FED317AA7EEA45AE5EE6E
:1023D000275AA5EEA76AE6EE276AA6EEA77A27EEA9
:1023E000277A20EEC00AF6EE006AA7EE870AB7EE5B
:1023F000007A97EEA60A37EE400A704760EE007A40
:10240000DFED1D4A9FED1D5ADFED1D5A9FED1D6A40
:10241000DFED1D6A9FED1D7A1D4AA7EEA45A934277
:10242000E5EE275AA5EEA76AE6EE276AA6EEA77A9A
:1024300027EE277AD5DD174A934214DC03F17F4358
:1024400006EE903AF7EE005A75EEE65A60EEC00AD4
:10245000B6EE006AE7EE870AD7EE866A76EEE00A05
:1024600035EEE00A7047F6EE075AF5EE026AEDE740
:10247000B7EE000A704700BF4ED747ADF6740F3174
:102480007CF293B4010DD037610BB6BAABAA2A3DEA
:102490009999993E0000483F2DE9F04F2DED048BAE
:1024A000D7B0A54C649D039103F1FF3954F8258002
:1024B0001D46D31E48BF131DDB1023EAE3730493AC
:1024C000049EDB4302EBC303824619EB0800029330
:1024D000C9EB060318D4659E184401301AA906EB0F
:1024E00083040022002BAABFA658DFED947A07EEE2
:1024F000106A03F10103A8BFF8EEC77A8342E1EC4A
:10250000017A02F10402EDD1B8F1000F4FEA880B15
:102510001DDB1AA843AE00EB85045E4442A8B9F166
:10252000000FC0F2AE81DFED857A514622460023CE
:10253000F1EC016A32ED017A0133AB42E6EE877AC3
:10254000F6D1E0EC017AB04204F10404E7D10DF1D8
:10255000180C4446CDF81480DFED7A8A9FED788A16
:10256000DDF80880E344A60056AB3344002C13ED9D
:10257000140A1BDDACF1040142AA3244314405AB1C
:1025800060EE287AB0EE407AFDEEE77A72ED016AED
:10259000F8EEE77AA7EEC87A37EEA60ABDEEC77A5C
:1025A00017EE100A43F8040F8B42E9D14046CDF8EC
:1025B00000C000F0F7FAB0EE409AB4EE000A29EE3F
:1025C000000A00F09FFAF2EE007AA0EE679AB8F1E6
:1025D000000FDDF800C0FDEEC99AF8EEE97A39EE99
:1025E000679A40F3A180611EC8F108005CF82130B1
:1025F00043FA00F202FA00F01B1A4CF8213019EEEF
:10260000901AC8F10700114443FA00F009EE901A3D
:102610000190019B002B2DDD19EE902A002C02F178
:10262000010209EE902A40F3408163460CEB060755
:10263000002153F8042BC2F1FF0011B9C2F58070DC
:1026400012B143F8040C0121BB42F2D1B8F1000FE2
:102650000DDDB8F1010F00F00281B8F1020F06D1D3
:10266000621E5CF8223003F03F034CF82230019BDD
:10267000022B69D0B5EE409AF1EE10FA78D10599A7
:10268000671EB9420ADC6644002356F8042D5E45F5
:1026900043EA0203F9D1002B40F0B181059A531EA1
:1026A0005CF82320002A40F0A7810CEB83034FF055
:1026B000010E53F8042D0EF1010E002AF9D0A644A4
:1026C000661C76452EDC0498049F2044659C09EB2B
:1026D00006031AA904EB800001EB8304659B774491
:1026E00042AA02EB860603EB870750F8041F07EEA9
:1026F000901AF8EEE77AB9F1000FE4EC017ADFED19
:102700000F7A0BDB514622460023F1EC016A32EDD1
:10271000017A0133AB42E6EE877AF6D1B842E6ECB5
:10272000017AE2D174461EE740F0A180631E5CF896
:1027300023301B1201936CE7ECC40008000000007A
:10274000000080430000803BB7EE000A30EE499A5B
:1027500000298FD04046CDF800C000F023FA39EEB2
:10276000409ADDF800C0B5EE409AF1EE10FA86D03E
:10277000029BCDF800C0B0EE490A5842DDF8148043
:1027800000F010FA5FED127ADDF800C0B4EEE70A4F
:10279000F1EE10FAC0F254811FED167A029A20EE83
:1027A000077A671CBDEEC77A0832B8EEC77A029284
:1027B000A7EE670ABDEEC77ABDEEC00A10EE103A6A
:1027C0004CF8243017EE104A4CF827400298CDF808
:1027D00000C0B7EE000A00F0E5F9002FDDF800C0F8
:1027E00036DB7D1CAA0042AE1FED2A7A0CEB0203F9
:1027F000324473ED017AF8EEE77A634567EE807A4A
:1028000020EE070A62ED017AF3D142A800EB8704BB
:102810000020B8F1000FC0F2E9809049DFED907A16
:102820002246002301E0834208DCF1EC016AB2ECAD
:10283000017A01339845E6EE877AF4DA56A901EB7E
:10284000800301308542A4F1040443ED287AE0D1ED
:10285000649C032C7FD8DFE804F0B387872A621ECC
:102860005CF8223003F07F034CF82230FFE6F6EEEE
:10287000007AB4EEE79AF1EE10FA0CDA0022019237
:10288000F8E6DFED777AE0EC017AB04204F1040477
:102890007FF445AE5BE619EE902A02210132002C4E
:1028A000019109EE902A3FF7C0AE0021CEE6002F3D
:1028B00040F3B980B90056AB7A1C2EAE0B4406EB40
:1028C000820253ED287A2FA8134653ED026A36EEA2
:1028D000A77A76EEC76A76EEA76AF0EE477A63EDDE
:1028E000016A834203ED017AEFD1012F40F39B800F
:1028F00056A8014451ED287A134630A953ED026AD7
:1029000036EEA77A76EEC76A76EEA76AF0EE477AD9
:1029100063ED016A8B4203ED017AEFD1DFED507A6E
:10292000134633ED017A994277EE877AF9D1019C0B
:10293000002C7DD0DDED2E6A9DED2F7A039EF1EE09
:10294000677AF1EE666AB1EE477AC6ED027AC6EDB5
:10295000006A86ED017A19EE901A01F0070057B06F
:10296000BDEC048BBDE8F08F002F74DB2EAA7B1C1E
:10297000DFED3B7A02EB830333ED017A934277EE8E
:10298000877AF9D1019AA2B3B1EE677ADDED2E6AAA
:10299000039B002F83ED007A76EEE77A08DD2FABFC
:1029A00003EB8707B3EC017ABB4277EE877AF9D164
:1029B000019C0CB1F1EE677A039DC5ED017ACAE77F
:1029C000002F45DB7B1C2EAADFED257A02EB83036B
:1029D00033ED017A934277EE877AF9D1019E0EB1F9
:1029E000F1EE677A0399C1ED007AB4E7DFED1C7A66
:1029F00024E7B0EE677AC9E74FF0010E5FE6029A6E
:102A00005CF82730DDF81480083A0292002B7FF43E
:102A1000DDAE0CEB870353F8041D013F083A002993
:102A2000F9D00292D2E6019CDFED0D7A002C81D123
:102A3000039D2E9A2F9BC5ED027A2A606B608AE770
:102A4000BDEEC00A274610EE105A4CF82450BDE6E1
:102A5000DFED037AC2E7DFED027A93E7F8C40008FE
:102A60000000000010EE103A23F00043B3F1485F7D
:102A700004DAFDEEC07A17EE903A23B360EE007AE6
:102A80009FED155A9FED156ADFED156A9FED157ADA
:102A9000DFED155AA7EE856A27EE805AE6EE276A23
:102AA000A6EEA77AE7EE275A70B165EEC55AB6EEE4
:102AB000007AE0EE875A9FED0D7AD5EEA70AE5EE93
:102AC000070A30EE600A70479FED097AA7EEA57AF3
:102AD000A7EE050A704700BFD3C92E2F342FD7B2F7
:102AE0001BEF3836010D50B98988083CABAA2A3E45
:102AF000ABAA2ABE10EE102A22F0004300EE103AD4
:102B0000704700BF10EE103A23F00040C10D7F392E
:102B1000162910B418DC00291C4622DB1E48084187
:102B2000184214D0DFED1D7A70EE277AF5EEC07AE8
:102B3000F1EE10FA0BDD002B21DB24EA000000EEA1
:102B4000100A5DF8044B7047B0F1FF4F04D200EE5D
:102B5000103A5DF8044B704730EE000A5DF8044B04
:102B60007047DFED0E7A70EE277AF5EEC07AF1EE5F
:102B700010FAECDD002B08DB9FED090AE9E74FF4C2
:102B8000000343FA01F10C44D7E70028BFEE000A26
:102B900008BF00EE103ADCE7FFFF7F00CAF2497180
:102BA0000000000008B510EE103A33F000412DEDA2
:102BB000028B10EE102A11D0B1F1FF4F11D2B1F5F6
:102BC000000F13D3C90D0144FE2930DC00291CDDA0
:102BD00022F0FF4242EAC15200EE102ABDEC028B05
:102BE00008BDBDEC028B30EE000A08BDDFED1E7A99
:102BF0001E4A20EE277A904217EE103A22DBC3F3EA
:102C0000C75117EE102A1939DDE711F1160F1EDA38
:102C10004CF2503290420ADC9FED158A00EE903A59
:102C2000B0EE480A00F02AF820EE080AD6E79FED39
:102C3000118A00EE903AB0EE480A00F01FF820EE3C
:102C4000080ACBE79FED0A0A27EE000AC6E719310A
:102C500022F0FF4242EAC152DFED077A07EE102A66
:102C600027EE270ABAE700BF0000004CB03CFFFF88
:102C70006042A20DCAF249710000003310EE101A32
:102C800021F0004210EE901A01F00043134300EED1
:102C9000103A704781F0004102E000BF83F000432A
:102CA00030B54FEA41044FEA430594EA050F08BFE7
:102CB00090EA020F1FBF54EA000C55EA020C7FEAAB
:102CC000645C7FEA655C00F0E2804FEA5454D4EB28
:102CD0005555B8BF6D420CDD2C4480EA020281EAF2
:102CE000030382EA000083EA010180EA020281EA2A
:102CF0000303362D88BF30BD11F0004F4FEA01317C
:102D00004FF4801C4CEA113102D0404261EB41018A
:102D100013F0004F4FEA03334CEA133302D0524210
:102D200063EB430394EA050F00F0A780A4F10104CC
:102D3000D5F1200E0DDB02FA0EFC22FA05F2801806
:102D400041F1000103FA0EF2801843FA05F35941EC
:102D50000EE0A5F120050EF1200E012A03FA0EFC6B
:102D600028BF4CF0020C43FA05F3C01851EBE37195
:102D700001F0004507D54FF0000EDCF1000C7EEBB2
:102D800000006EEB0101B1F5801F1BD3B1F5001FF0
:102D90000CD349085FEA30004FEA3C0C04F101040F
:102DA0004FEA445212F5800F80F09A80BCF1004F38
:102DB00008BF5FEA500C50F1000041EB045141EABA
:102DC000050130BD5FEA4C0C404141EB010111F4BB
:102DD000801FA4F10104E9D191F0000F04BF014666
:102DE0000020B1FA81F308BF2033A3F10B03B3F144
:102DF00020020CDA0C3208DD02F1140CC2F10C02D4
:102E000001FA0CF021FA02F10CE002F11402D8BF31
:102E1000C2F1200C01FA02F120FA0CFCDCBF41EAFD
:102E20000C019040E41AA2BF01EB0451294330BDCC
:102E30006FEA04041F3C1CDA0C340EDC04F11404A9
:102E4000C4F1200220FA04F001FA02F340EA030080
:102E500021FA04F345EA030130BDC4F10C04C4F1C6
:102E6000200220FA02F001FA04F340EA03002946A6
:102E700030BD21FA04F0294630BD94F0000F83F4F0
:102E8000801306BF81F480110134013D4EE77FEAD3
:102E9000645C18BF7FEA655C29D094EA050F08BF1F
:102EA00090EA020F05D054EA000C04BF1946104600
:102EB00030BD91EA030F1EBF0021002030BD5FEA44
:102EC000545C05D14000494128BF41F0004130BD6C
:102ED00014F580043CBF01F5801130BD01F00045C0
:102EE00045F0FE4141F470014FF0000030BD7FEA33
:102EF000645C1ABF194610467FEA655C1CBF0B462E
:102F0000024650EA013406BF52EA033591EA030F44
:102F100041F4002130BD00BF90F0000F04BF00213C
:102F2000704730B54FF4806404F132044FF000056F
:102F30004FF0000150E700BF90F0000F04BF0021E8
:102F4000704730B54FF4806404F1320410F000454E
:102F500048BF40424FF000013EE700BF42004FEA49
:102F6000E2014FEA31014FEA02701FBF12F07F43C6
:102F700093F07F4F81F06051704792F0000F14BFC3
:102F800093F07F4F704730B54FF4607401F0004507
:102F900021F0004120E700BF50EA010208BF70475E
:102FA00030B54FF000050AE050EA010208BF704753
:102FB00030B511F0004502D5404261EB41014FF4BC
:102FC000806404F132045FEA915C3FF4DCAE4FF0C0
:102FD00003025FEADC0C18BF03325FEADC0C18BFA7
:102FE000033202EBDC02C2F1200300FA03FC20FAF8
:102FF00002F001FA03FE40EA0E0021FA02F1144445
:10300000C1E600BF4FF0FF3C06E000BF4FF0010CEF
:1030100002E000BF4FF0010C4DF804CD4FEA410C27
:103020007FEA6C5C4FEA430C18BF7FEA6C5C1BD0F4
:1030300001B050EA410C0CBF52EA430C91EA030F75
:1030400002BF90EA020F0020704710F1000F91EAD2
:10305000030F58BF994208BF90422CBFD8176FEAA0
:10306000E37040F0010070474FEA410C7FEA6C5C6E
:1030700002D150EA013C07D14FEA430C7FEA6C5C75
:10308000D6D152EA033CD3D05DF8040B704700BFA1
:103090008446104662468C461946634600E000BFEF
:1030A00001B5FFF7B7FF002848BF10F1000F01BDC1
:1030B0004DF808EDFFF7F4FF0CBF012000205DF88C
:1030C00008FB00BF4DF808EDFFF7EAFF34BF012011
:1030D00000205DF808FB00BF4DF808EDFFF7E0FFAA
:1030E00094BF012000205DF808FB00BF4DF808EDFB
:1030F000FFF7CEFF94BF012000205DF808FB00BF62
:103100004DF808EDFFF7C4FF34BF012000205DF843
:1031100008FB00BF000000000000000000000000ED
:10312000000000000000000000000000000000009F
:10313000000000000000000000000000000000008F
:10314000000000000000000000000000000000007F
:10315000000000000000000000000000000000006F
:10316000000000000000000000000000000000005F
:10317000000000000000000000000000000000004F
:10318000000000000000000000000000000000003F
:10319000000000000000000000000000000000002F
:1031A000000000000000000000000000000000001F
:1031B000000000000000000000000000000000000F
:1031C00000000000000000000000000000000000FF
:1031D00000000000000000000000000000000000EF
:1031E00000000000000000000000000000000000DF
:1031F00000000000000000000000000000000000CF
:1032000000000000000000000000000000000000BE
:1032100000000000000000000000000000000000AE
:10322000000000000000000000000000000000009E
:10323000000000000000000000000000000000008E
:103240000000000000000000E18CAB2FE18CAB2FF0
:10325000869E722F146E123088C1B62FD6CE6D3076
:10326000576D0D30159EBD3059515A30646315317C
:10327000CE98A530C62F68314B85F5303679B131FF
:1032800006BB31315D2B05325C8E7B31F20E443250
:10329000CA5DAE31EC9E8D32323DED313CEEC8322E
:1032A000C7B31E320E240C33042851320F6E403344
:1032B00087F987326935823374A8AE3287DFAD3340
:1032C00028E4DD328C58E5335D8C0B33638F153485
:1032D00060EF2D333A0B413482FF563318CB7634EE
:1032E000A7DD8333F55C9C34D49EA033AA84C43418
:1032F000FE5FC233A91CF53456CEE9331FC817351B
:1033000063D40B343ABD3A35A26026346355643534
:103310001BFF443495CA8A35DE2D683453D0A73557
:103320005B3B883424DFC935F1379F3424ADF13558
:10333000745EB9345E021036B607D73456E32A36C7
:103340000994F834D6F54936E2350F3550C36D3659
:10335000CE7F2435A1718B36A2643C3535FEA23672
:10336000F2255735F5E2BD364E0A75353E84DC361A
:10337000C62E8B35F04FFF3682B89D35085F133768
:10338000FC4DB235C5A82937DE1DC93586CC42377C
:10339000155AE235C5175F37E337FE35C8DE7E378D
:1033A0000E780E36643E9137AA5F1F36582AA5372D
:1033B000F3F23136B868BB372F5446363E33D43734
:1033C000B4A75C3636C8EF37131475365B3507384B
:1033D00016E187367F311838A06E963651FF2A38AD
:1033E0008B49A63683C83F38FD89B736C3B95638EE
:1033F0008149CA36F4027038FBA2DE36A9EB853863
:10340000C7B2F436D53695385F4B06374100A6383B
:10341000233713372567B8382E2D2137CB8CCC387E
:10342000D93E3037A994E238447E403773A4FA3845
:1034300084FE513720720A3993D3643758BF183944
:10344000501279377B5028394B6887378A3D393994
:103450009B129337DB9F4B3908949F375C925F39FF
:10346000FCF8AC3778317539744EBB37A54D8639C9
:10347000F9A1CA37C4F792398F01DB37DEA7A0392B
:10348000E87BEC379A6FAF393120FF379E61BF3947
:10349000237F09388491D03943131438EA13E33970
:1034A00001551F388CFEF6392C4D2B381834063A4E
:1034B000F104383867B4113AC4854538C40C1E3A53
:1034C00074D953385B4A2B3A240A6338FE7A393A66
:1034D0004822733821AD483A58168238EDEF583AF1
:1034E000441A8B3836536A3AA8A294388AE77C3A51
:1034F00071B59E381B5F883ABB58A938A9F4923A37
:10350000CB92B438D43D9E3A1C6AC0387344AA3A70
:103510004FE5CC38C912B73A380BDA3881B3C43A20
:10352000D6E2E738B031D33A5A73F638DE98E23A49
:1035300016E2023922F5F23A62EE0A397729023BA5
:10354000756213399E5F0B3B40421C39C223153B09
:10355000CC912539E27C1F3B3A552F3933722A3BF7
:10356000C19039393F0B363BB4484439CB4F423BCD
:1035700072814F39E2474F3B703F5B39D9FB5C3B6F
:10358000468767394F746B3B845D743928BA7A3B40
:1035900078E380394B6B853B26E487398DE98D3B99
:1035A00039338F39C0DC963B2AD39639F349A03B97
:1035B00078C69E395B36AA3BAC0FA73956A7B43BF9
:1035C00054B1AF396BA2BF3B0CAEB8394C2DCB3BDD
:1035D0007308C239D24DD73B2BC3CB39040AE43B25
:1035E000E7E0D5391368F13B5164E039596EFF3B90
:1035F0002350EB39AE11073C18A7F639E6C60E3C4E
:10360000FB35013A46DA163CBB50073A524F1F3C95
:1036100032A50D3AA029283CC334143AF56C313C4C
:10362000D4001B3A021D3B3CC80A223AAD3D453C42
:103630000654293AE7D24F3CEFDD303ACCE05A3C11
:10364000EAA9383A646B663C58B9403A0077723C54
:10365000990D493AD3077F3C0CA8513A2C11863C6E
:103660000B8A5A3A7CE58C3CF1B4633A2203943CD1
:10367000112A6D3A726C9B3CBFEA763ACC23A33C8C
:10368000227C803A8D2BAB3CF9A9853A2A86B33C43
:1036900078FF8A3A2136BC3C4C7D903AF83DC53CD7
:1036A0000824963A37A0CE3C3DF49B3A7D5FD83C47
:1036B0008EEEA13A657EE23C7C13A83A9DFFEC3C7D
:1036C0009A63AE3AD5E5F73C68DFB43AE699013D36
:1036D0006687BB3A2176073D175CC23A02890D3DE9
:1036E000E05DC93AF2D3133D438DD03A5B581A3DA1
:1036F0009EEAD73AB017213D5976DF3A6213283D4A
:10370000C930E73AEA4C2F3D431AEF3ABDC5363D82
:103710001F33F73A547F3E3D987BFF3A317B463D5D
:10372000F5F9033BD1BA4E3D254E083BB23F573D1C
:1037300074BA0C3B5B0B603DF13E113B491F693D88
:10374000ACDB153B057D723DA9901A3B0E267C3DF6
:10375000EE5D1F3BF70D833D7043243B1230883DE7
:103760003141293B1C7A8D3D1E572E3BD4EC923DB6
:103770002885333BFE88983D34CB383B584F9E3DDF
:1037800024293E3BA040A43DD19E433B975DAA3DEA
:10379000102C493BF8A6B03DB7D04E3B7E1DB73D3F
:1037A000858C543BE2C1BD3D435F5A3BDC94C43D34
:1037B000A648603B2197CB3D6B48663B66C9D23D2E
:1037C000385E6C3B592CDA3DB589723BA2C0E13DB5
:1037D00086CA783BFD86E93D3E207F3BFD7FF13D7B
:1037E00037C5823B51ACF93D5304863B4606013E4A
:1037F000314D893BB650053E8F9F8C3BADB5093EA0
:1038000028FB8F3B89350E3EB05F933B87D0123E3D
:10381000DCCC963BEA86173E56429A3B03591C3E47
:10382000CDBF9D3B0047213EE544A13B2451263EB0
:103830003FD1A43BAC772B3E7C64A83BD4BA303E4E
:1038400036FEAB3BC51A363E049EAF3BB5973B3EBA
:103850007B43B33BD131413E27EEB63B43E9463E85
:10386000959DBA3B2CBE4C3E4E51BE3BBBB0523E2A
:10387000D308C23BFEC0583EA6C3C53B1CEF5E3E0C
:103880004281C93B2A3B653E2241CD3B2EA56B3E82
:10389000BA02D13B442D723E7BC5D43B72D3783EF5
:1038A000D488D83BB8977F3E314CDC3B0B3D833E00
:1038B000F60EE03B4ABD863E8AD0E33B8A4C8A3E08
:1038C0004C90E73BCDEA8D3E9B4DEB3B0498913EFF
:1038D000D107EF3B2254953E48BEF23B1A1F993E5A
:1038E0005070F63BDAF89C3E411DFA3B50E1A03E99
:1038F00069C4FD3B63D8A43E89B2003CF8DDA83E14
:10390000467F023CF2F1AC3E0E48043C3214B13E1C
:10391000850C063CB55D25BF4DCC073C853E23BFDD
:103920000987093C671821BF563C0B3C77EB1EBF4B
:10393000D8EB0C3CC7B71CBF2B950E3C737D1ABF50
:10394000F037103C933C18BFC3D3113C44F515BF6E
:103950004368133CA3A713BF0DF5143CCE5311BF0E
:10396000BE79163CE7F90EBFF4F5173C109A0CBF70
:103970004969193C6A340ABF5DD31A3C1DC907BFA7
:10398000CC331C3C4E5805BF338A1D3C25E202BF98
:1039900030D61E3CCD6600BF6117203CDECCFBBE9E
:1039A000654D213C74C2F6BEDB77223CB4AEF1BE5D
:1039B0006396233C0092ECBEA1A8243CBA6CE7BEFF
:1039C00030AE253C4A3FE2BEB3A6263C130ADDBE1C
:1039D000D591273C86CDD7BE406F283C0D8AD2BEFC
:1039E000933E293C1740CDBE6DFF293C1DF0C7BE5C
:1039F0008FB12A3C8E9AC2BE8D542B3CEC3FBDBE8B
:103A000026E82B3CA9E0B7BE046C2C3C497DB2BE35
:103A1000D2DF2C3C4B16ADBE5A432D3C31ACA7BE79
:103A200031962D3C7F3FA2BE2AD82D3CBFD09CBEF4
:103A3000FD082E3C766097BE5C282E3C31EF91BE8F
:103A400014362E3C807D8CBEE2312E3CF20B87BEBC
:103A5000921B2E3C159B81BEE2F22D3CFB5678BE9C
:103A6000B4B72D3C857B6DBEBB692D3CE9A462BE1D
:103A7000E2082D3C5AD457BEF4942C3C080B4DBEA2
:103A8000DB0D2C3C2E4A42BE61732B3CF39237BEB9
:103A900071C52A3C9FE62CBEEA032A3C614622BE41
:103AA000C32E293C74B317BEDA45283C142F0DBE33
:103AB0003049273C82BA02BEAF38263CF5ADF0BD96
:103AC0005714253C640BDCBD28DC233CE28FC7BDCA
:103AD0001690223CDF3DB3BD3530213CD8179FBD49
:103AE0008FBC1F3C46208BBD30351E3C41B36EBDA4
:103AF0002D9A1C3CB48C47BDA0EB1A3CCDD120BD07
:103B0000A429193CC50EF5BC5D54173C9864A9BCAA
:103B1000EF6B153C435D3DBC8770133CF3B227BB94
:103B20005462113C31EBCE3B8B410F3C21B7763CCC
:103B3000640E0D3CC4E2C13C1EC90A3CA9A3033D6E
:103B4000FB71083C29C0253D4109063C7742473DB1
:103B50003E8F033C4726683D4104013CAC33843D25
:103B60003BD1FC3BBF00943D6379F73B5578A33DC7
:103B7000AE01F23B7198B23DE46AEC3B1F5FC13D80
:103B8000D7B5E63B78CACF3D58E3E03BB6D8DD3D3C
:103B90004BF4DA3BF387EB3D96E9D43B91D6F83D05
:103BA00029C4CE3B69E1023EFF84C83B9325093E10
:103BB000192DC23BFD360F3E7DBDBB3BE414153EC7
:103BC0003E37B53BA0BE1A3E729BAE3B7C33203ED7
:103BD0003BEBA73BD872253EBF27A13B117C2A3E79
:103BE00028529A3BA24E2F3EAF6B933B05EA333EE1
:103BF0008B758C3BAC4D383EFD70853B34793C3E3B
:103C000093BE7C3B306C403E81836E3B3C26443E01
:103C10006533603B0EA7473EE5D0513B4FEE4A3E31
:103C2000BA5E433BC9FB4D3E9FDF343B47CF503E1E
:103C30006356263BA068533ECDC5173BB9C7553EDA
:103C4000B430093B7FEC573EE333F53AE4D6593EB6
:103C5000C908D83AF4865B3EE7E5BA3ABFFC5C3E59
:103C600014D19D3A65385E3E1AD0803A013A5F3EE3
:103C7000C2D1473AD601603E88420E3A1A90603E61
:103C800092FCA93916E5603E5086E0382A01613E73
:103C9000A1D1E3B8ABE4603EF12DA9B91390603E29
:103CA000CE390CBADB03603E155743BA88405F3EFD
:103CB00032E379BAA1465E3E51E997BACE165D3E2F
:103CC000068DB2BAB6B15B3EF8D6CCBA08185A3EE9
:103CD000A7C1E6BA874A583EB82300BBF549563E0D
:103CE00072B10CBB3017543E4D0719BB15B3513E92
:103CF000A02225BB881E4F3ED00031BB815A4C3ECE
:103D0000479F3CBB0768493E82FB47BB1948463E7C
:103D1000041353BBCFFB423E6DE35DBB3E843F3E8D
:103D20005A6A68BB93E23B3E86A572BB0318383ED5
:103D3000B8927CBBB625343EE01783BBF30C303E13
:103D400046BD87BB0BCF2B3E8C388CBB476D273EC7
:103D5000B98890BB03E9223EDEAC94BB9D431E3E76
:103D600019A498BB787E193E8E6D9CBB0C9B143EAB
:103D70006D08A0BBC99A0F3EF873A3BB297F0A3E0A
:103D800071AFA6BBAF49053E30BAA9BBB7F7FF3D3F
:103D90009293ACBB802EF53D033BAFBBD23AEA3DDC
:103DA000FEAFB1BBD01FDF3D06F2B3BBB0E0D33DE9
:103DB000AB00B6BBA680C83D91DBB7BBED02BD3DF5
:103DC0005E82B9BBC86AB13DCFF4BABB7ABBA53D30
:103DD000AB32BCBB50F8993DC93BBDBB93248E3D73
:103DE0000610BEBB9343823D55AFBEBB3CB16C3D9C
:103DF000B519BFBB06CE543D314FBFBB1FE43C3DA0
:103E0000E64FBFBB23FA243DF91BBFBBA4160D3DF3
:103E1000A0B3BEBB5C80EA3C2317BEBB98FABA3C99
:103E2000D546BDBBE0A88B3C1243BCBB3830393C07
:103E30004E0CBBBB1F54B73B02A3B9BBA1B893B890
:103E4000BB07B8BB9E56BABB103BB6BBD24838BC0A
:103E5000A63DB4BBD63389BC3110B2BBE3B7B5BC09
:103E600073B3AFBBBBA4E1BC3728ADBB667706BD5F
:103E70005B6FAABB50C51BBDC589A7BB89B630BD4A
:103E80006778A4BB974545BD463CA1BB1F6D59BD96
:103E90006AD69DBBEC276DBDEC479ABB753880BDDB
:103EA000F39196BB94A189BDA9B592BBEFCC92BD0D
:103EB0004AB48EBB34B89BBD188F8ABB2561A4BDA4
:103EC000644786BB9BC5ACBD85DE81BB83E3B4BDC7
:103ED000BAAB7ABBE2B8BCBDAE5D71BBCF43C4BD6B
:103EE000CAD567BB7D82CBBD04175EBB3573D2BD1F
:103EF000672454BB5314D9BD04014ABB6464DFBDBD
:103F0000FFAF3FBBE261E5BD883435BB8A0BEBBD3B
:103F1000E0912ABB1A60F0BD48CB1FBB6C5EF5BDBB
:103F200013E414BB8D05FABD9BDF09BB8C54FEBDA9
:103F30008882FDBA492501BEF618E7BA80F302BEB1
:103F40004D89D0BA929404BE82DAB9BA440806BE4A
:103F50007C13A3BA6C4E07BE403B8CBAE46608BE25
:103F600083B16ABA905109BEF1E53CBA770E0ABE38
:103F7000C8210FBA989D0ABEECE5C2B90FFF0ABE70
:103F80007F9D4FB9F7320BBECC9BD1B785390BBEA5
:103F9000273B1A39F5120BBED4BBA63998BF0ABE0F
:103FA000DEA5FF39C63F0ABE69E02B3AE39309BE9E
:103FB0000679573A67BC08BED047813ADAB907BEDE
:103FC0009D8B963AC08C06BE8A81AB3ABC3505BE45
:103FD0004623C03A76B503BEA66AD43AA10C02BE07
:103FE0009F51E83A013C00BE38D2FB3AB288FCBD92
:103FF0005173073B194DF8BD9EC4103BF2C6F3BD8B
:1040000042DA193B20F8EEBD8AB1223B95E2E9BDC8
:10401000E0472B3B5B88E4BDC09A333B8BEBDEBDB6
:10402000BBA73B3B4C0ED9BD7C6C433BDFF2D2BD02
:10403000C8E64A3BAD9BCCBD7514523B080BC6BDD0
:104040007BF3583B6D43BFBDE4815F3B5E47B8BD2A
:10405000DBBD653B6F19B1BDA2A56B3B41BCA9BDE2
:10406000A137713B8532A2BD4972763BF37E9ABD82
:104070003D547B3B51A492BD2EDC7F3B6FA58ABD96
:104080007D04823B278582BDC3EC833BB78C74BD26
:1040900077A6853BE6D763BD3131873BC2F152BD80
:1040A000998C883B2FE041BD63B8893B23A930BD83
:1040B0005BB48A3B96521FBD56808B3B8CE20DBD94
:1040C0003D1C8C3B07BEF8BC06888C3B099CD5BCCC
:1040D000B7C38C3B1C6BB2BC6BCF8C3B40378FBCE7
:1040E00045AB8C3BDB1858BC81578C3B1DED11BC9C
:1040F00061D48B3BD90598BB3F228B3BB339CEB9FA
:1041000080418A3BC8BB7A3B9932893B3F48033C9C
:1041100012F6873B4B43473C7B8C863BC344853C34
:104120007BF6843B6082A63CC034833B904FC73C07
:104130000E48813B95A1E73C64627E3BF1B6033DAE
:1041400011E2793B1255133DF510753B20A6223D37
:10415000FFF06F3B31A5313D3A846A3B754D403DE0
:10416000C9CC643B429A4E3DE6CC5E3B0F875C3D3A
:10417000DD86583B7E0F6A3D1FFD513B4F2F773D3B
:1041800029324B3B39F1813D8A28443B7E12883DE0
:10419000F5E23C3B96F98D3D1964353BB5A4933D62
:1041A000CFAE2D3B2C12993DF3C5253B5C409E3D87
:1041B00070AC1D3BBF2DA33D4F65153BEAD8A73D15
:1041C00099F30C3B8740AC3D695A043B5A63B03DC0
:1041D000C439F73A4140B43D7A7CE53A33D6B73D2D
:1041E0006483D33A4124BB3D1755C13A9529BE3D5E
:1041F00014F8AE3A76E5C03D13739C3A4157C33D7F
:10420000C8CC893A747EC53DAE176E3AA45AC73DF4
:10421000186E483A80EBC83D49AA223AD530CA3DCB
:1042200087B3F939892ACB3D0F14AE399DD8CB3DE0
:104230003E2245392E3BCC3D722C3A387252CC3D51
:10424000C1CFCEB8BF1ECC3DA6817CB97EA0CB3DF0
:10425000C546C8B937D8CA3DD9D508BA8CC6C93DF4
:10426000E82A2DBA356CC83DD21551BA0ACAC63DE6
:10427000098A74BAF7E0C43D97BD8BBA00B2C23D5B
:1042800085EE9CBA453EC03DE8D1ADBAFE86BD3D47
:10429000E161BEBA768DBA3DB298CEBA1453B73D3D
:1042A000D370DEBA51D9B33DD3E4EDBABD21B03DF0
:1042B0006EEFFCBA002EAC3DC1C505BBD1FFA73DDA
:1042C00014DA0CBB0099A33D4FB213BB6EFB9E3DAD
:1042D000204C1ABB0D299A3D5AA520BBE223953DDF
:1042E000DFBB26BB03EE8F3DB08D2CBB96898A3D8C
:1042F000EC1832BBCFF8843DBF5B37BBE17B7E3D22
:1043000085543CBB99B6723D9F0141BB80A6663D7A
:104310009A6145BB66505A3D227349BB34B94D3D45
:10432000F8344DBBE4E5403DFAA550BB84DB333D9A
:1043300031C553BB319F263DB69156BB1436193D4E
:10434000C90A59BB68A50B3DC92F5BBBD8E4FB3C30
:1043500036005DBBD444E03CA97B5EBB5B75C43CCE
:10436000E7A15FBB1E81A83CC37260BBCA728C3CD4
:104370003EEE60BB04AA603C711461BBE464283C5F
:104380009EE560BBFA56E03B1E6260BBD64B603BCD
:104390006E8A5FBB76654137285F5EBBC09D5DBBA3
:1043A00002E15CBB613FDDBBD5105BBBE86325BCB4
:1043B0009BEF58BBCE9F5BBC637E56BBB19F88BC56
:1043C00061BE53BB7C17A3BCE1B050BB9D2DBDBCEF
:1043D00054574DBB84D8D6BC39B349BBEC0EF0BCA6
:1043E00033C645BBDA6304BD029241BBFB7C10BD02
:1043F00075183DBB824E1CBD845B38BB3AD427BDCB
:10440000325D33BB0E0A33BD9A1F2EBB07EC3DBD98
:10441000F6A428BB567648BD91EF22BB4FA552BDEE
:10442000C8011DBB6C755CBD13DE16BB4CE365BDDE
:10443000F68610BBBBEB6EBD0CFF09BBAD8B77BD29
:10444000024903BB3CC07FBD1ACFF8BA5AC383BD33
:10445000ECBAEABA466E87BD2D5BDCBAB2DF8ABD24
:10446000A2B5CDBA89168EBD24D0BEBACA1191BDEF
:10447000B2B0AFBA8DD093BD475DA0BA015296BD20
:10448000F5DB90BA719598BDE93281BA3D9A9ABD33
:1044900097D062BADE5F9CBDAB0443BAE8E59DBD30
:1044A0008A0E23BA052C9FBDB7FA02BAFA31A0BD15
:1044B00077ABC5B9A6F7A0BD365885B9FD7CA1BDBF
:1044C00068290AB913C2A1BD7B3A1FB70DC7A1BDA8
:1044D0006A7EEB382C8CA1BDF6BD7439CE11A1BD1E
:1044E000DC6BB9396258A0BD0CEEF73974609FBD22
:1044F000CDE61A3AA72A9EBD7879393AB4B79CBD61
:1045000060A3573A6C089BBD1459753ABA1D99BD02
:10451000AC47893A9CF896BD8D9D973A269A94BDF2
:10452000CFA8A53A830392BD3564B33AF2358FBD67
:1045300094CAC03AC8328CBDECD6CD3A6CFB88BD6B
:104540007984DA3A5A9185BD78CEE63A20F681BD73
:104550007BB0F23ABB567CBD1C26FE3A8B6574BD1F
:104560009A95043B301C6CBDE5DD093B527E63BD72
:104570000BEA0E3BB38F5ABD3BB8133B2E5451BDD3
:10458000C946183BC3CF47BD17941C3B81063EBDAF
:10459000AD9E203B97FC33BD2065243B45B629BD2D
:1045A00034E6273BE1371FBDB7202B3BD48514BD34
:1045B0009C132E3B9CA409BDF4BD303B7931FDBC5E
:1045C000EF1E333B9ACDE6BCD335353BDF26D0BC5E
:1045D0000F02373B9E46B9BC2183383B3B36A2BC19
:1045E000B3B8393B22FF8ABC86A23A3BA55567BCCB
:1045F00080403B3B838538BC9B923B3BDEA009BCA3
:10460000F7983B3B4075B5BBD4533B3BAD962FBBB6
:1046100087C33A3B6DCD323988E8393B5E15453B5F
:104620006FC3383B67ECBE3BF054373B6F4B0D3CE0
:10463000D89D353BE4B23A3C149F333BAE9A673C7D
:10464000AE59313B8CF8893CCACE2E3B63D29F3C9D
:10465000A7FF2B3B5752B53CA0ED283B0B70CA3C43
:10466000259A253B5123DF3CC806223B2B64F33CB3
:1046700030351E3B6995033D15271A3BD9370D3D53
:1046800052DE153BBE95163DD25C113B8CAB1F3DF7
:1046900094A40C3BD575283DAFB7073B4FF1303D97
:1046A0005098023BD41A393D5F91FA3A61EF403D90
:1046B0004896EF3A126C483D0D44E43A338E4F3D34
:1046C000949FD83A3153563DE5ADCC3A9DB85C3D08
:1046D0000A74C03A40BC623D46F7B33AFA5B683DA3
:1046E000E83CA73AE0956D3D444A9A3A3268723DFB
:1046F000DB248D3A58D1763D56A47F3AEACF7A3DF5
:10470000A7AF643AA9627E3DE376493A43C4803D4F
:1047100063052E3A4D20823D9366123A1B45833D38
:10472000C74BED396632843D999DB53904E8843D27
:1047300031B37B39DE65853D6B2D0C39F4AB853D9E
:10474000AFBCE63760BA853D6C41A4B84F91853D5A
:10475000338E40B90931853DF42197B9E799843DFD
:10476000A38ACDB95CCC833D93B501BAF1C8823D33
:10477000DC561CBA4390813D739E36BA0623803DB9
:10478000CB8150BA05047D3D87F669BA2A5C793D34
:104790003F7981BA6150753DE1B58DBAB1E2703DA6
:1047A00053AC99BA4F156C3DCF57A5BA90EA663D08
:1047B000CEB3B0BAF264613DD0BBBBBA15875B3DE6
:1047C0008A6BC6BAB753553DD2BED0BAC1CD4E3DA5
:1047D000B4B1DABA34F8473D5C40E4BA31D6403D72
:1047E0001967EDBAF86A393D7522F6BAE4B9313D78
:1047F000296FFEBA6BC6293D0A2503BB1A94213DD9
:1048000025D806BB9826193D8F4F0ABBA081103DC5
:10481000068A0DBBFFA8073D5C8610BB3441FD3CFA
:104820008C4313BBC1D8EA3C9CC015BBAE20D83C1E
:10483000B6FC17BB1721C53C22F719BB30E2B13CCF
:1048400040AF1BBB4C6C9E3C8F241DBBBAC78A3C3F
:10485000A0561EBBC3F96D3C2E451FBB7928463CB4
:104860000AF01FBB7A2C1E3C1F5720BB652DEC3B6A
:10487000787A20BB29F09B3B425A20BB1086173B1D
:10488000B4F61FBB1C0A07B934501FBBD7C027BBE7
:104890003C671EBB0A14A3BB623C1DBB3BB2F1BB11
:1048A00056D01BBB33CD1FBCE5231ABB305646BCCC
:1048B000F03718BB2C646CBC800D16BBC5F388BCEC
:1048C000ADA513BB7C689BBCA70111BBAF88ADBC79
:1048D000BA220EBB074DBFBC4E0A0BBB4EAED0BCBE
:1048E000D9B907BB8CA5E1BCEF3204BBE72BF2BC06
:1048F000387700BB691D01BDDF10F9BAF0E508BDCE
:10490000C9D0F0BA746C10BD0332E8BA04AE17BD5A
:104910007038DFBAC9A71EBD21E8D5BA0A5725BD30
:104920005745CCBA34B92BBD5654C2BAD8CB31BDD9
:104930009E19B8BAA48C37BDB499ADBA73F93CBD11
:1049400045D9A2BA3B1042BD1BDD97BA24CF46BD64
:10495000FBA98CBA74344BBDDB4481BA9C3E4FBD7D
:1049600072656BBA31EC52BD40F153BAF73B56BD9C
:1049700055373CBAD52C59BDFE4124BADCBD5BBDD0
:104980009A1B0CBA4AEE5DBD279DE7B985BD5FBD98
:10499000C8CAB6B91B2B61BD09D585B9C43662BD7D
:1049A000CCA129B965E062BD1F4D8FB80B2863BD4E
:1049B000D1EED037EF0D63BDD303F7386C9262BDF3
:1049C000545C5C3910B661BD14429E398D7960BD6E
:1049D00071E8CD39BCDD5EBD350DFD39A1E35CBDAF
:1049E0004ECE153A698C5ABD98C12C3A60D957BD44
:1049F000E556433A05CC54BDD684593AF16551BDCC
:104A000037426F3AE8A84DBD0743823AD29649BD76
:104A1000CEA38C3AB33145BD30BF963AB97B40BD89
:104A20000D91A03A32773BBD5F15AA3A852636BD77
:104A30005348B33A428C30BD3626BC3A12AB2ABD3D
:104A40006BABC43AB68524BD9ED4CC3A121F1EBDB2
:104A5000869ED43A1D7A17BD1D06DC3AEC9910BD2E
:104A60007008E33AA98109BDCFA2E93A933402BDA7
:104A7000B6D2EF3AF86BF5BCC495F53A9E12E6BC97
:104A8000C9E9FA3A0064D6BCDDCCFF3A3267C6BC4D
:104A90009C1E023B5D23B6BC9A1C043BCD9FA5BC6B
:104AA000C2DF053BD2E394BC7D67073BE5F683BCE0
:104AB00047B3083BEFC065BCC8C2093B425043BC8A
:104AC000B0950A3BD7AA20BCD42B0B3BC3BFFBBB82
:104AD00022850B3B32FDB5BB9FA10B3BC15860BB90
:104AE00071810B3BA9AEA9BACC240B3BEE35593AE8
:104AF0000F8C0A3B8BD9403BA0B7093B9548A53B9F
:104B00000DA8083B9C9CE93BFA5D073BCDA5163CF4
:104B10001BDA053B511C383C4A1D043BA823593C79
:104B20007128023BC1AD793C28F9FF3A72D68C3C22
:104B30009635FB3ACE899C3C9708F63A59EAAB3C4D
:104B4000B674F03AA3F1BA3CA57CEA3A6C99C93C38
:104B50005623E43AA4DBD73CC56BDD3A5CB2E53CB6
:104B60003559D63AF017F33CF7EECE3A7003003DD4
:104B70008930C73AF63C063D8221BF3A01360C3DEA
:104B8000ADC5B63A2EEC113DDD20AE3A345D173D91
:104B90001837A53AEF861C3D6E0C9C3A5167213DB3
:104BA0001AA5923A79FC253D5505893AA5442A3D36
:104BB0000F637E3A313E2E3D425C6A3AA1E7313DB9
:104BC0004DFF553AA03F353D5555413AF644383DE5
:104BD0009D672C3A94F63A3D823F173A90533D3DFB
:104BE0006FE6013A2A5B3F3DC8CBD839C30C413D43
:104BF000D28EAD39DF67423D15298239316C433D94
:104C0000785B2D398D19443D89BFAC38EC6F443D3C
:104C1000DF81F5B4736F443D2F1CAEB86318443D7B
:104C200077342DB92F6B433D2C6481B96868423DC0
:104C300047D2ABB9C410413D34D2D5B91D653F3D13
:104C4000C751FFB97B663D3D931F14BAFE153B3D2E
:104C50005E4428BAEC74383DA30E3CBAB284353DAC
:104C6000F3754FBADA46323D087262BA12BD2E3D74
:104C7000D8FA74BA25E92A3D488483BA03CD263D83
:104C8000C7498CBAB66A223D41CA94BA64C41D3D74
:104C90001E029DBA52DC183D03EEA4BAE1B4133DE6
:104CA0009E8AACBA8E500E3DD9D4B3BAE5B1083D58
:104CB000A6C9BABA9ADB023D4566C1BACBA0F93C97
:104CC000FDA7C7BA4E26ED3C548CCDBA884DE03CCA
:104CD000F010D3BA781CD33CAB33D8BA3C99C53C5E
:104CE00081F2DCBA16CAB73CA44BE1BA5BB5A93C69
:104CF0006D3DE5BA85619B3C75C6E8BA20D58C3C14
:104D000074E5EBBA8E2D7C3C4899EEBA695A5E3C4C
:104D100021E1F0BA3E3E403C39BCF2BABAE6213C51
:104D2000112AF4BA7861033C642AF5BA5A78C93B6F
:104D3000FDBCF5BA1A098C3BEFE1F5BA3D211D3BEC
:104D40008699F5BAE451093A21E4F4BA2D3BB0BA98
:104D50006BC2F3BAD0FE51BB2B35F2BAB38CA5BBF4
:104D60006A3DF0BA0D9CE1BB4DDCEDBA90890EBCFA
:104D70002B13EBBAF7EB2BBC98E3E7BA67E848BC18
:104D8000424FE4BA557265BC0958E0BAA7BE80BC70
:104D9000F1FFDBBAA97E8EBC4149D7BA3BF39BBC7D
:104DA0004C36D2BA9F16A9BC94C9CCBA3CE3B5BC68
:104DB000CA05C7BA9753C2BCBEEDC0BA7462CEBCB6
:104DC0006584BABAB80ADABCCCCCB3BA8847E5BCB9
:104DD00034CAACBA2A14F0BCF17FA5BA276CFABC6D
:104DE00076F19DBA9F2502BD5B2296BAB4D606BD68
:104DF0003F168EBA64470BBDE5D085BAEC750FBD82
:104E00006CAC7ABA9D6013BD2D5469BAEE0517BD1E
:104E10001CA157BA72641ABD619B45BAE07A1DBDE8
:104E2000484B33BA0C4820BD36B920BAF3CA22BD6C
:104E3000A9ED0DBAA90225BD65E2F5B96FEE26BD53
:104E4000EB98CFB9A08D28BD4410A9B9C0DF29BD0A
:104E5000DB5982B975E42ABD4F0E37B9829B2BBD51
:104E600097A6D2B8D6042CBD5C2CDDB77A202CBD19
:104E7000A9604738A3EE2BBD6C06FE38A06F2BBD92
:104E800040B94B39E5A32ABD11EC8B390D8C29BDF6
:104E90001A9FB139D12828BD0BE5D639077B26BD2D
:104EA0007AADFB39AB8324BD1DF40F3ADA4322BD42
:104EB000B6C2213ACFBC1FBDC13A333AE5EF1CBDA3
:104EC000A054443A93DE19BDE708553A6E8A16BDE0
:104ED0005F50653A2DF512BD0024753A9D200FBD37
:104EE000803E823AAA0E0BBD63AA893A55C106BD1F
:104EF00087D2903AC33A02BDE6B3973A47FAFABC72
:104F00008E4B9E3A8C15F1BCC596A43A22CCE6BCD9
:104F1000E692AA3AF122DCBC753DB03A1C1FD1BC26
:104F20002194B53AD8C5C5BCC494BA3A8C1CBABC55
:104F3000533DBF3AB828AEBCF58BC33AF5EFA1BCE0
:104F4000F47EC73A077895BCD614CB3AB9C688BC6C
:104F5000294CCE3AF1C377BCD223D13A789F5DBCBD
:104F6000BF9AD33A1A2C43BC18B0D53A167628BC4F
:104F70003A63D73AB4890DBC9CB3D83A81E6E4BB16
:104F8000F1A0D93A457EAEBB152BDA3AFFE66FBBEE
:104F90001352DA3AF5BD02BB1416DA3A6297ADB98C
:104FA0008077D93AA911AE3AE976D83A4944433BD9
:104FB000FA14D73A6367973BAD52D53A0EBCCC3B57
:104FC0000431D33A28C4003C33B1D03A4EDA1A3C0B
:104FD000B5D4CD3AE894343C039DCA3A81E84D3CBF
:104FE000D40BC73A04CA663C1123C33A5E2E7F3CF9
:104FF000B5E4BE3A7A858B3CE652BA3AA92A973C88
:10500000FE6FB53AAA81A23C5D3EB03A8F85AD3CB9
:10501000A2C0AA3A9A31B83C85F9A43A3481C23C7C
:10502000C7EB9E3AF06FCC3C639A983A97F9D53C1F
:105030006708923A1C1ADF3C04398B3AAACDE73C48
:10504000712F843AA410F03C21DE793A95DFF73CC9
:10505000A2F66A3A4837FF3C7AAF5B3A640A033DEE
:10506000DB0F4C3AA23A063D201F3C3A1F2B093D6C
:10507000C0E42B3AB2DA0B3D54681B3A52480E3D5D
:1050800089B10A3A1A73103D4890F3393B5A123DE0
:10509000F567D1390AFD133DE8F9AE39FE5A153DE1
:1050A000FB558C39AA73163D3F185339C146173D3D
:1050B00090580D391AD4173D9D198F38A81B183DEB
:1050C000116CEA357B1D183D325F87B8CCD9173D8E
:1050D000F2E008B9EA50173DE69F4DB94C83163D02
:1050E000B1E688B97F71153D5CA5AAB9341C143DA1
:1050F000C3FCCBB93984123D00DEECB97DAA103D6A
:105100002E9D06BA09900E3DB78116BA01360C3DA8
:105110008D1526BAAB9D093DCB5135BA64C8063D05
:10512000B62F44BAA5B7033DC7A852BA036D003DD8
:10513000A5B660BA52D4F93C2F536EBAB761F23CAF
:105140007B787BBAF685EA3C681084BAEF44E23C8F
:105150006B238ABAB4A2D93C9EF28FBA8CA3D03CFE
:105160008E7B95BAD44BC73CE1BB9ABA14A0BD3C28
:1051700061B19FBAFEA4B33C095AA4BA5F5FA93CCF
:10518000D8B3A8BA21D49E3C15BDACBA5008943C03
:105190001E74B0BA0B01893C77D7B3BA2A877B3C1F
:1051A000CAE5B6BA6FAA643CF19DB9BAB6764D3C71
:1051B000DAFEBBBADDF6353CC107BEBAE1351E3CAE
:1051C000E6B7BFBAE53E063CC20EC1BA193ADC3BAF
:1051D000F60BC2BA19B7AB3B56AFC2BA8C16763BC8
:1051E000C1F8C2BA2B9A143B6AE8C2BAD5974C3AB6
:1051F000847EC2BA3C6538BA90BBC1BA18F70EBB00
:1052000019A0C0BA24476FBBE22CBFBACB6EA7BBB4
:10521000D562BDBA7EC7D6BBFB42BBBA1ECC02BCB0
:105220008BCEB8BAF0E519BCEB06B6BAD1A630BC45
:105230008FEDB2BA810447BC2384AFBA03F55CBCDE
:105240006ECCABBA926E72BC5BC8A7BACFB383BC4C
:10525000FE79A3BA70EB8DBC85E39EBAA6D997BC44
:1052600039079ABA187AA1BC83E794BA91C8AABC44
:1052700002878FBA02C1B3BC4CE889BA875FBCBC55
:10528000200E84BA69A0C4BCD5F67BBA2180CCBC00
:1052900023666FBA4FFBD3BC467062BAD50EDBBC37
:1052A000801B55BAB0B7E1BC366E47BA1EF3E7BCF7
:1052B000F46E39BA9ABEEDBC68242BBABA17F3BCA7
:1052C0005E951CBA66FCF7BCBCC80DBAAA6AFCBCE9
:1052D000068BFDB96C3000BD8925DFB9B8EE01BD84
:1052E000516FC0B9966F03BDBA76A1B984B204BD3F
:1052F000494A82B917B705BD04F145B90A7D06BD13
:10530000EF1F07B9290407BDEB7C90B8684C07BDB7
:10531000729B16B7D05507BD3B055538902007BD89
:105320007E4BE738EBAC06BDFBA6313942FB05BD31
:1053300092286F39190C05BD350796390CE003BD6D
:10534000651EB439CF7702BD2DCCD13936D400BD1E
:105350001903EF395FECFDBCFBDA053A8CBDF9BCF3
:10536000ECEB133A2A1EF5BC0EAE213ABA10F0BC93
:105370003A1B2F3ADF97EABC722D3C3A73B6E4BC75
:10538000E8DE483A7C6FDEBCFD29553A2AC6D7BC18
:105390004709613AE3BDD0BC8D776C3A275AC9BC46
:1053A000D46F773AA69EC1BCACF6803A3D8FB9BCAB
:1053B000C5F5853ADE2FB1BC19B38A3AAE84A8BCD4
:1053C0009D2C8F3AE6919FBC6760933ADD5B96BC5B
:1053D000B84C973A14E78CBCF5EF9A3A133883BC73
:1053E0009A489E3A11A772BC5055A13A6D7C5EBC9A
:1053F000E114A43AD4F949BC3C86A63A0C2935BC40
:105400006FA8A83AF91320BCBD7AAA3AA3C40ABC73
:105410007BFCAB3A268AEABB302DAD3ADA3EBFBB05
:10542000870CAE3AB6BB93BB5D9AAE3A422A50BBEC
:105430008FD6AE3AF67DF1BA49C1AE3A4F7905BA88
:10544000CF5AAE3A543C573A89A3AD3ADAA00C3B56
:10545000F79BAC3AD6EE623BD744AB3AA1489C3BB3
:10546000FE9EA93A60B0C63B5EABA73A379BF03BC5
:10547000236BA53A00FB0C3C82DFA23AF156213C9B
:10548000E509A03A3158353CD6EB9C3AA8F5483CA2
:10549000E986993A87265C3CEEDC953A20E26E3C40
:1054A000CEEF913A0E90803C85C18D3A256C893CB7
:1054B0003854893A6A01923C16AA843A0C4C9A3CB8
:1054C000098B7F3A6448A23CD651753AF3F2A93C65
:1054D000A9AD6A3A6248B13CC1A35F3A7C45B83C89
:1054E0008839543A4CE7BE3C9674483AED2AC53C9C
:1054F000A35A3C3AC50DCB3C94F12F3A518DD03C88
:10550000633F233A4CA7D53C344A163A9E59DA3CBD
:105510003F18093A5DA2DE3CAF5FF739DD7FE23C20
:10552000C62EDC399AF0E53CB8AAC03944F3E83C11
:105530009AE0A439C786EB3C97DD88393DAAED3C5B
:10554000D05D5939FA5CEF3CA3C320397E9EF03C14
:10555000AA0ED0388D6EF13CC60D3D3817CDF13C0A
:105560007ED716B73DBAF13CECE183B85936F13C31
:105570007659F4B8FD41F03CB40632B9F4DDEE3CA6
:10558000096569B9260BED3C121790B9CACAEA3C05
:105590006624ABB9371EE83C1BCEC5B90007E53C15
:1055A000F607E0B9E386E13C06C6F9B9C99FDD3CE0
:1055B000477E09BAD953D93C11D015BA59A5D43C64
:1055C000D0D221BAC196CF3C1A812DBAB62ACA3C94
:1055D000B2D538BA0864C43C88CB43BAAB45BE3CAC
:1055E000BA5D4EBAC0D2B73C9B8758BA800EB13C68
:1055F000B04462BA5EFCA93CB2906BBAD89FA23CA0
:10560000956774BA9BFC9A3C85C57CBA6D16933C31
:10561000765382BA35F18A3C330486BAF490823CE0
:10562000767389BA78F3733CBF9F8CBA865F623C0D
:10563000C8878FBA8D6E503C6D2A92BA3B293E3C8A
:105640008A8694BA6A982B3C499B96BA00C5183C46
:10565000DA6798BA05B8053C9BEB99BA22F5E43BAA
:10566000FA259BBAA42BBE3BAA169CBAF925973BF8
:105670005DBD9CBA44ED5F3B021A9DBA4360113B8D
:10568000992C9DBAED93853A4CF59CBA0F0B3BB91A
:1056900073749CBAD2D5B3BA74AA9BBA23C027BB81
:1056A000E0979ABA130C75BB6D3D99BA65D5A0BB4E
:1056B000E89B97BA5FBCC6BB54B495BA7629ECBBDD
:1056C000C38793BAB28508BC611791BA9FA81ABC68
:1056D00087648EBA34752CBCAE708BBA45E33DBC82
:1056E000593D88BAF5EA4EBC3ECC84BA75845FBC9D
:1056F000291F81BA59A86FBCF06F7ABA614F7FBC7D
:10570000543172BA3A3987BCB18669BA6F858EBC9A
:10571000637460BA148995BCF6FE56BA09419CBC04
:10572000232B4DBA64AAA2BCCAFD42BA51C2A8BC7E
:10573000F57B38BA3086AEBCCFAA2DBA88F3B3BC9D
:10574000AA8F22BA0408B9BCF02F17BA82C1BDBC17
:105750002F910BBA0D1EC2BC1672FFB9D31BC6BC6B
:105760007C5AE7B942B9C9BC37E7CEB9DBF4CCBC47
:105770000B24B6B96DCDCFBCD71C9DB9E141D2BCCD
:1057800099DD83B95651D4BCBFE454B91FFBD5BCD5
:1057900084CE21B9BB3ED7BC7F21DDB8E01BD8BC8D
:1057A0000A0F6DB86392D8BC27F8FFB663A2D8BCC5
:1057B0006B8C2C381C4CD8BC9119BC380490D7BCCD
:1057C00069A51039BC6ED6BC60D5423910E9D4BC8D
:1057D000378574390800D3BCECCE9239C9B4D0BC3B
:1057E0004404AB39B708CEBC6ED7C2395AFDCABC27
:1057F000723DDA396494C7BC8A2BF139B9CFC3BC86
:105800009ECB033A5BB1BFBC24BB0E3A803BBBBC12
:105810005B5F193A8570B6BC75B3233AE952B1BCE7
:10582000C5B22D3A56E5ABBCCE58373A8C2AA6BC49
:105830003FA1403A8525A0BCF487493A45D999BC97
:10584000FC08523AFD4893BC9C205A3AF8778CBC2D
:1058500044CB613A9C6985BCA405693ADC427CBCB6
:105860009DCC6F3A14466DBC4B1D763A42E45DBC4C
:1058700002F57B3AF1244EBCAAA8803ADB0F3EBC6D
:105880000918833AD7AC2DBC9F47853AE8031DBC65
:105890008D36873A171D0CBC1DE4883A2801F6BBEB
:1058A000A54F8A3A3D6DD3BBBC788B3A0E8FB0BB07
:1058B000EB5E8C3A53778DBB07028D3AA26D54BBD9
:1058C000E4618D3AB0BC0DBB8C7E8D3AD5FA8DBAB1
:1058D00018588D3AAFBAA2B6D5EE8C3A184C8C3A1D
:1058E00011438C3A99470C3B5E558B3A48F2513B39
:1058F00056268A3AB7828B3BA6B6883A63B0AD3B50
:105900003D07873A3272CF3B0D19853A76B8F03BA6
:105910002BED823AE1B9083CC984803A7ACA183C36
:105920006AC27B3A9C86283CB207763A17E7373C36
:1059300073DC6F3AE1E4463CE743693A2479553C2D
:105940007B41623A3E9D633CCCD85A3AC64A713C90
:10595000A30D533A9C7B7E3CF9E34A3AF094853C94
:10596000EF5F423AEFA78B3CCF85393A1C74913CEC
:10597000065A303AEDF6963C29E1263AF92D9C3C40
:10598000EB1F1D3AF716A13C221B133ACDAFA53CE5
:10599000BCD7083A8EF6A93C8DB5FC3962E9AD3C1E
:1059A000C452E739B086B13C9491D139F6CCB43CBD
:1059B0008E7CBB39E7BAB73C6D1EA539624FBA3C45
:1059C00004828E396889BC3C75646F393068BE3C8E
:1059D0000F74413917EBBF3CF4481339AE11C13C89
:1059E00062F2C9389DDBC13C946B5A38D548C23C41
:1059F000374204375C59C23C43D417B8710DC23CDE
:105A0000A7F5A7B87B65C13C66B701B91062C03C79
:105A100042152FB9E103BF3C0CFF5BB9E64BBD3C1F
:105A2000DF2F84B9253BBB3C51119AB9E0D2B83C79
:105A3000A799AFB97A14B63CE5BEC4B97F01B33CAF
:105A40003B77D9B99F9BAF3C1CB9EDB9BBE4AB3CEC
:105A50009DBD00BAD1DEA73C415A0ABAFC8BA33CDB
:105A60001AAE13BA8DEE9E3CE7B41CBAE5089A3C18
:105A7000936A25BA92DD943C31CB2DBA396F8F3CB5
:105A800001D335BA9EC0893C6D7E3DBAACD4833C0F
:105A90000FCA44BAB85C7B3CB0B24BBA89A16E3C29
:105AA0004C3552BA357E613C0F4F58BA47F9533CDA
:105AB0005DFD5DBA7519463CCA3D63BA95E5373C54
:105AC000230E68BAB364293C6D6C6CBAEB9D1A3C2A
:105AD000E05670BA7D980B3CF1CB73BA7DB7F83BBA
